:10000000003E00208D4C0000F55A02007D4B0000A0
:100010007D4B00007D4B00007D4B00007D4B0000C0
:100020007D4B00007D4B00007D4B000039490000F6
:100030007D4B00007D4B0000E1480000B540000012
:100040004D4C00006B8702004D4C00004D4C0000F1
:100050004D4C00004D4C00004D4C00004D4C00003C
:100060004D4C00004D4C00004D4C00004D4C00002C
:100070004D4C00004D4C00004D4C00004D4C00001C
:100080004D4C00004D4C00004D4C00004D4C00000C
:100090004D4C00004D4C00004D4C00004D4C0000FC
:1000A0004D4C00004D4C00004D4C00004D4C0000EC
:1000B0004D4C00004D4C00004D4C00004D4C0000DC
:1000C0004D4C00004D4C00004D4C00004D4C0000CC
:1000D0004D4C00004D4C00004D4C00004D4C0000BC
:1000E0004D4C00004D4C00004D4C00004D4C0000AC
:1000F0004D4C00004D4C00004D4C00004D4C00009C
:100100007BB972B90029BEBF00204FF0004106E064
:1001100008BF00281CBF6FF000414FF0FF3000F017
:10012000CDB9ADF1080C6DE904CE002909DB002B37
:100130001ADB00F061F8DDF804E0DDE9022304B029
:100140007047404261EB4101002B1BDB00F054F88B
:10015000DDF804E0DDE9022304B0404261EB410137
:10016000524263EB43037047524263EB430300F098
:1001700043F8DDF804E0DDE9022304B0404261EB1E
:1001800041017047524263EB430300F035F8DDF85C
:1001900004E0DDE9022304B0524263EB43037047FD
:1001A00053B94AB9002908BF00281CBF4FF0FF31DE
:1001B0004FF0FF3000F082B9ADF1080C6DE904CECC
:1001C00000F01AF8DDF804E0DDE9022304B070471E
:1001D000430803F05533C01A830803F0333300F0AB
:1001E0003330184400EB101000F00F3000EB00200B
:1001F00000EB0040000E70472DE9F047089D0E46C9
:1002000004468C46002B40F081808A42174645D92F
:10021000B2FA82F24AB1C2F1200106FA02F320FAE0
:1002200001F1974041EA030C94404FEA174E230C2A
:10023000BCFBFEF6B9B20EFB16CC43EA0C4306FB40
:1002400001F0984209D9FB1806F1FF3C80F01581B6
:10025000984240F21281023E3B441B1AA4B2B3FB07
:10026000FEF00EFB103344EA034400FB01F1A1420F
:1002700009D93C1900F1FF3380F00181A14240F21D
:10028000FE8002383C44641A40EA064000211DB159
:10029000D4400023C5E90043BDE8F08702B9FFDE82
:1002A000B2FA82F2002A4FD1CB1B4FEA174E1FFA47
:1002B00087F80121B3FBFEFC260C0EFB1C3346EA3B
:1002C000034608FB0CF3B34207D9BE190CF1FF300B
:1002D00002D2B34200F2EB808446F61AA3B2B6FB18
:1002E000FEF00EFB106643EA064408FB00F8A0454A
:1002F00007D93C1900F1FF3302D2A04500F2D280A9
:100300001846A4EB080440EA0C40C0E78B4208D929
:10031000002D00F0AF800021C5E900060846BDE8C9
:10032000F087B3FA83F1002949D1B34202D3824264
:1003300000F2BB80841A66EB030301209C46002D6B
:10034000AAD0C5E9004CA7E7C2F120039740D840E6
:100350009140DE404FEA174E08434FEA104CB6FB7F
:10036000FEF11FFA87F80EFB11664CEA064601FB08
:1003700008F3B34204FA02F409D9BE1901F1FF3CB3
:1003800080F08E80B34240F28B8002393E44F31AF3
:1003900086B2B3FBFEF00EFB103346EA034600FBC9
:1003A00008F3B34207D9BE1900F1FF3C74D2B3423F
:1003B00072D902383E44F31A40EA01417AE7C1F1AA
:1003C000200703FA01F422FA07F31C4320FA07F985
:1003D00006FA01F34FEA144CFE4049EA03094FEADA
:1003E0001943B6FBFCFE1FFA84F80CFB1E6643EAB9
:1003F00006460EFB08FAB24502FA01F200FA01F3D2
:1004000008D9A6190EF1FF3048D2B24546D9AEF14F
:10041000020E2644A6EB0A061FFA89F9B6FBFCF089
:100420000CFB106649EA064600FB08F8B04507D900
:10043000A61900F1FF3C2DD2B0452BD90238264435
:1004400040EA0E40A6EB0806A0FB02894E45C446D2
:10045000CE4618D315D075B3B3EB0C0266EB0E067F
:1004600006FA07F722FA01F3CE401F43C5E90076EA
:10047000002111E7294628460EE76646EDE61846B4
:1004800001E74345E7D2B8EB020C69EB04040138FD
:10049000A646E0E76046D3E760468CE78646B9E7C4
:1004A000614674E702383C442BE7084647E7ACF165
:1004B000020C3E4411E72946EEE600BF704700BF3C
:1004C0002DE9F04F8FB002230D9330B91AF0EAFDF9
:1004D000064630460FB0BDE8F08FCF4F97F8CC609E
:1004E00016F001063D4601D00C26F2E797F82B8066
:1004F00097F87BA027232C2213FB082807EB080280
:1005000017F808000A923146C0F3801003FB0A7AFC
:1005100018F06EFC0A9B03F102090146044606220C
:100520000AF17C0A484625F0BFFB062221460AF163
:10053000020025F0B9FB17F808305A0600F1938045
:1005400017F8083013F00E0F00F0968095F8283059
:100550000121C3F342030DF133008DF8333027F04E
:100560000DFE002800F04C8117F808400A9B04F0AB
:100570000F04022C5A789AF8013000F1FF3140F054
:100580000F811032D200504300F5AA70642303FBA0
:10059000010095F82030A149ED61002464F30003C7
:1005A00085F8203031232B60C5E9054498A3D3E9B1
:1005B00000236C60AC60A0FB0101FFF7F1FDE86077
:1005C000B5F8D8A027F095FE8146BAF1000F06D104
:1005D00017F8084004F00F04631E5C425C4195F874
:1005E0002870DFF848828E4AEB6864F3000785F8CC
:1005F00028700DAC17F00107CDE90784CDE905257A
:10060000049300F0E9800020CDE900030321CDE947
:1006100002004B46022218F023FB21461AF000F894
:10062000002840F0ED8002220D92CDE907847D4A3A
:100630000695CDE902004AF2D833CDE904020093D1
:1006400001904B460122032118F00AFB214619F0C4
:10065000E7FF002840F0D48095F8CC3043F0010348
:1006600085F8CC3035E70621484627F050FD0028B4
:100670007FF466AF12262CE76B6A002B7FF434AF51
:1006800019F026FF814630B119F02EFF834620B9BC
:10069000484619F023FF07261BE71AF091FF04468E
:1006A00018B9584619F026FFF2E74FF6FF72828517
:1006B000C26E00F11C030B9312B900F16402C26612
:1006C00004F1600204F15C01E06E27F02BFD94F868
:1006D0007210C4F8C89021F0070184F8721094F8E1
:1006E0003D1001F03F0161F07F0184F83D1094F866
:1006F0004010002262F3000184F8401094F880104A
:10070000E26621F0030184F8801094F8BE10A4F88A
:10071000702021F0030184F8BE1094F8EE1084F8E4
:100720003F20062062F30411C4E91322628662634B
:100730006265A4F87400A4F87820A4F87C20A4F8DA
:100740008C2084F88E20C4F89C20A4F8A020A4F863
:10075000B420C4F8B800A4F8BC2084F8C720A4F8DA
:10076000EC2084F8EE10C5E9349B0B9B6B6294F887
:100770002030C4F8142162F30003C4E94822C4E91C
:100780004622C4E90522E46184F820301CF080FB95
:1007900000283FF4DBAE20481AF09CFA032698E6C6
:1007A000012C15D0DB00803364B902F1100003F591
:1007B0002773C200983303EBC00302F59A7001FB64
:1007C0000030E6E6062CF0D010204FF4AA73F0E7D4
:1007D00016204FF42D73ECE713489123AAFB000178
:1007E00003FB0A110AA3D3E90023CDE90277FFF73F
:1007F000D7FC4B46CDE9007002220321384623E79F
:100800006B6A002B3FF470AE03481AF063FA6BE694
:100810008D49FD1A070000005816002000CA9A3BB7
:10082000D5AB01002DAE0100002AE78415A601001A
:100830002DE9F04B8CB0022304460B9390F8243042
:1008400090F83800364EC0F3400003F0F90360F32F
:10085000861384F8243004F1250118F0C9FA94F8BD
:100860002030678EE461002565F30003A7FB0601D5
:1008700084F82030912303FB0711C4E9055526A312
:10088000D3E90023FFF78CFC31232360636B6560A1
:100890000933A0F13102934232BFE360E260656345
:1008A000A560074627F025FD1E4BB4F832B0CDE910
:1008B00006431D4B0593B146E3680493804691239C
:1008C000ABFB090100250BAE03FB0B1112A3D3E90F
:1008D000002308960395FFF763FC104619464FF472
:1008E0007A720023FFF75CFC0321CDE901700095CB
:1008F00043460422284618F0B3F9314619F090FE19
:1009000040B994F8383043F0010384F838300CB023
:10091000BDE8F08B0C20FAE78D49FD1A07000000B6
:10092000002AE78415A60100C5B1010000000000FF
:1009300070B5054600201E461AF006FD044610B3A9
:1009400090F8383066F3420380F838309DF8103064
:100950006186DB0003F0180343EAC51094F82430E5
:1009600003F06703184384F824000B489123A2FB8B
:10097000000103FB021106A3D3E90023FFF710FCDB
:100980006063002070BD0C20FCE700BFAFF3008067
:100990008D49FD1A07000000002AE78400000000CE
:1009A0002DE9F04F9046828D4FF6FF739A428DB03D
:1009B00004460E460CD1CD4ACD49CE484FF444737F
:1009C00023F08FFA404080F311884FF0030002DFDC
:1009D00094F88D2094F88C3093420BD194F8A12098
:1009E00094F8A010914225D00122023B84F88E2079
:1009F00084F88D3094F88C1094F88D30CB1A03F075
:100A00000303022B40F0798294F88E30012B00F022
:100A10002282022B00F03884B44AB749B54840F22C
:100A2000963323F05EFA404080F311884FF00300C4
:100A300002DF62E294F8B53094F8B4108B4267D0CC
:100A40005B1AD807D6D594F8801011F001072ED084
:100A500019F07EFD05460028CCD094F8B43084F817
:100A6000B530A38DC3800223037190F8203043F08A
:100A7000030380F82030092380F8213080F82330E8
:100A800008220021243025F03AF9D4F8B83085F84E
:100A90002430C3F307221B0C85F8252085F8263067
:100AA0002946086819F02CFD19F034FDA2E7934897
:100AB00027F0E8FA054600289CD094F8B530013BB1
:100AC00084F8B5300623C4F8B830037943F0030343
:100AD00003710923437194F93D30002BACBF082307
:100AE0000E230822C3713946104425F008F9D4F8C2
:100AF000B8302B72C3F307221B0C6A72AB72294603
:100B0000204627F03CFDB4F87A30A4F87C3071E739
:100B100094F8BD3094F8BC108B4264D05B1AD907AE
:100B20007FF568AF94F8BE30DA0725D4734827F014
:100B3000A9FA014600283FF45DAF94F8BD30013BAF
:100B400084F8BD3094F8BE3043F0010384F8BE3021
:100B5000037943F003030371062343710C23C3712C
:100B60000A2303726FF00E034372052383724FF062
:100B7000FF33C3720373C3E79F0726D519F0E8FC60
:100B8000014600283FF436AF94F8BC3084F8BD30FD
:100B9000A38DC3800223037190F8203043F0030338
:100BA00080F82030062380F821300C2380F8233091
:100BB00094F8BF3080F82430B4F8C030A0F8253065
:100BC000B4F8C230A0F827306BE740F62A33474A22
:100BD0004949484823F085F9404080F311884FF097
:100BE000030002DF06E794F8ED1094F8EC30994228
:100BF0003FF400AF424D2B6813B19C427FF4FAAE34
:100C000094F8EE3003F00703052B00F2218101A1D7
:100C100051F823F02D0C0000A90C0000FF0D00007E
:100C2000F5090000F5090000F50900003348E78EDA
:100C3000B4F8329027F026FA014600283FF4DAAEE5
:100C400094F8EE30042262F3020384F8EE30037964
:100C500043F003030371182343710F23C371B4F8E6
:100C6000F0300381B4F8F2304381B4F8F43083817A
:100C7000B4F8F630C3814F4400230374C374037582
:100C800047444FF0FF33A0F8117043758375C37567
:100C9000037643768376C37603774377837720465C
:100CA00027F06DFC2C602EE794F8EF7057B31348D3
:100CB00027F0E8F9014600283FF49CAE037943F0A1
:100CC000030303711123C371032343710F230372C1
:100CD00094F8EF304372204627F051FC94F8EC3042
:100CE00084F8ED3000232B6084E600BF2506030066
:100CF00052070300E8A50200C9E3020044190020DE
:100D0000C818002094F93D30002B35DB94F8EE3004
:100D1000C4F8AC70052161F3020394F8F81084F86C
:100D2000EE30012384F8B03019B3B4F8F030B3FBDF
:100D3000F1F3013313FB01F39BB2A4F8A430B4F830
:100D4000F430A4F8A630B4F8F630A4F8A83094F83B
:100D5000EE3094F8A210C3F3C0039B0043F00203EB
:100D600021F007010B43013A84F8A23084F8A12056
:100D700040E6B4F8F230E0E7654827F083F9014631
:100D800000283FF437AE037943F0030303711823BF
:100D900043711023C371B4F8F0300381B4F8F2301A
:100DA0004381B4F8F4308381B4F8F630C38194F809
:100DB000F8300374B4F8FA30A0F81130B4F8FC300D
:100DC000A0F81330B4F8FE30A0F81530B4F80031B4
:100DD000A0F81730B4F80231A0F81930B4F8043193
:100DE000A0F81B30B4F80631A0F81D30204627F0DB
:100DF000C6FB94F8EC3084F8ED302F60FAE519F07A
:100E0000A7FB014600283FF4F5AD94F8EE3003222D
:100E100062F3020384F8EE30A38DC38002230371D2
:100E200090F82030134380F82030182380F82130C8
:100E30000F2380F82330B4F8F0308384B4F8F23014
:100E4000C384B4F8F4300385B4F8F630438528E65B
:100E500040F63743BBE62F4B1A6802B91C60628E1E
:100E6000E78E174494F8A220474412F00300BFB263
:100E700052D0012019F054FB064600283DD02448EA
:100E800027F000F90546C0B319F062FB3368D4F8C7
:100E90009C205A6094F8A230C4F89C606FF3010360
:100EA00084F8A230238E1F442B790637BFB243F05B
:100EB0000303A4F890702B710C236B710023EB716A
:100EC00094F8B0302B7240F2E242D4F8AC30B3FB6D
:100ED000F2F3A5F80930B4F8A430A5F80B30B4F853
:100EE000A630A5F80D30B4F8A830A5F80F30A5F855
:100EF00011702946204627F042FB94F8C52094F84B
:100F0000C4309A4240F0108200200DB0BDE8F08F4E
:100F100044190020C8180020B4F89090A7EB0902EB
:100F200015041FFA82FBE8D494F8A02084F8A120CD
:100F300084F88D1094F8ED2094F8EC108A4209D0D2
:100F400094F8EE2002F00702052A04BF84F8ED10A1
:100F5000A4F87C001A68D4F89C50944204BF002284
:100F60001A600DB12B6863B9BB4ABC49BC4840F656
:100F7000C30322F0B6FF404080F311884FF0030016
:100F800002DF2868B4F8A4204368C4F89C30E38DDD
:100F9000B4F8A6C0B4F8A8109A4213D1238E6345C2
:100FA00010D140F2E24303FB02FE42F2107303FB56
:100FB00001E3013BB3FBFEF3B4F876E09BB29E4540
:100FC00000F02481A38DEB800A232B71002385F888
:100FD00020306A84A5F824C0E984294619F090FAE3
:100FE00019F098FA2368002B09DAD4E9010123F0FB
:100FF000004381422CBF761836182360F61AE38D21
:10100000B4F8A450DFF87CA213FB0BF39BB2B3FB44
:10101000F5F18AB20A9215FB01F292B2934240F2C4
:10102000E24080F0F680D31A5843A0FB0A0188A35F
:10103000D3E90023FFF7B4F820F07F4006440A9B71
:10104000628EA9EB07071F4494F93D309044474452
:10105000002B40F2E248678608FB05F580F2E68047
:10106000E26C636C03FB1B23E36427F0C9FC0746B7
:1010700094F88000C0F382001CF03EFE94F8B0208B
:10108000784B08FB02F2074462650A9800226F431E
:10109000C4F8882007F57427E26C07F23F27B7FBF6
:1010A000F3F76B087843963B0244A3649A4294BFDB
:1010B000E264E364676466A3D3E90023A0FB0A014A
:1010C000FFF76EF8361AD4F8AC00B0FBF8F008FB66
:1010D00000F05FA3D3E90023A0FB0A01FFF760F84B
:1010E000A5EB070920F07F48B4F8A430E385B4F8F5
:1010F000A6302386B4F8A83042F2107202FB0353E4
:10110000013BB3FBF5F3A4F87630574B2B44B3FB0C
:10111000F5F594F8A230A4F87A505A0744BF00239A
:10112000A4F87830022101201DF0CAFC002202211F
:101130000746012016F0D2FF20461AF04DFA451D51
:10114000EDB24A4B00942A460121002017F018FE08
:1011500030F002030CD0404A4549414840F667133D
:1011600022F0BFFE404080F311884FF0030002DF01
:10117000A9FB0A23CDE90A23DDE90A0134A3D3E957
:101180000023FFF70DF83B4B0894CDE906433A4B9B
:101190000593E3680493394B0A9920F07F44A4FB3C
:1011A00003ABB1EB0A004FF007030B9903FB04BB41
:1011B00061EB0B014FF000094FF47A720023CDF878
:1011C0000C90FEF7EDFF3346CDE90140CDF80080ED
:1011D0002A460121484617F043FD30F002030CD0A7
:1011E0001D4A23491E4840F6811322F07AFE4040F2
:1011F00080F311884FF0030002DF27B101220221A2
:10120000104616F06BFF6FF047007EE603232B714C
:10121000E3E605FB113189B248430DA3D3E900236E
:10122000A0FB0A01FEF7BCFF361A08E70A4A144978
:101230000B4840F6381322F054FE404080F31188EA
:101240004FF0030002DF4FF00008A9464CE700BF53
:101250008D49FD1A07000000250603006D070300F5
:10126000E8A5020040420F00FF59620281B401006C
:10127000DB06030029B40100C9C801008D49FD1A2D
:10128000C9E3020000CA9A3B638EE28E1A4494F8C6
:1012900090309044DB071FFA88F825D5354826F0B2
:1012A000F1FE054600283FF428AE94F890306FF325
:1012B000000384F89030238E9844037908F10608DF
:1012C00043F00303A4F896800371082343710123BC
:1012D000C371052204F19101083024F0E5FCB4F853
:1012E0009630A5F80D3004E6B4F89630A8EB030864
:1012F00018F4004F7FF401AE04F1380584F88D1026
:10130000052204F19101284624F0CEFC052128464F
:1013100026F034FF94F83D3060F3050384F83D3047
:10132000012384F82831E8E5124826F0ABFE014697
:1013300080B194F8C43084F8C530037943F00303D6
:10134000037102234371C37194F8C63003722046BF
:1013500027F015F9B4F87C0000287FF4D5ADB4F877
:101360007630012B02D9A4F87C30CDE50133A4F806
:101370007C30CAE5441900202DE9F04F91B01C469D
:101380000B90136820460027894650F80C5B9F603D
:10139000904604F1080B03223231D3F800A004F187
:1013A0001C0624F081FC09F12E010422584624F089
:1013B0007BFC052209F13E01304624F075FC052135
:1013C000304626F0DBFE94F8213060F3050384F804
:1013D000213099F84330C3F3040384F82230B9F87C
:1013E0003860668299F83B2099F83A3043EA022344
:1013F000A382B9F83630ADF8303040F2E2435E43B4
:1014000099F8433095F880205B0963F3840285F8EE
:10141000802027F0F5FA0D9095F88000C0F3820047
:101420001CF06AFC0D9B1844704300F574207E4B41
:1014300000F23F20B0FBF3F07308963BE36299F8AB
:101440003530A06240F2E2425343E363B9F83C30E6
:101450000D9342F2107202FB0362013AB2FBF6F204
:10146000A5F87620714A5946324405F18400B2FB52
:10147000F6F2A5F87A20042224F016FC99F820B0A0
:1014800009F1220106220EA824F00EFCCBF3801BEA
:101490004FF48072A9F8202089F822B00EA9062204
:1014A00009F1230024F000FC628A0D9BA9F82A2090
:1014B000A28AA9F82E3095F88030A9F82C20C3F321
:1014C000820389F8303028461AF086F8494620828F
:1014D000A9F806000B98DFF8749119F011F819F0CB
:1014E00019F8D8F810B06F6031230BF252402B601E
:1014F000AF604BA3D3E90023A0FB0901FEF750FE28
:10150000A36ABDF83020F61AD8F80C301146A3F5BE
:10151000AE7340F2E24220F07F40A3EB0B0302FBEC
:10152000012B5B443A460221E86001200B9316F040
:10153000D5FD504619F094FD821C3D4BCDF800A01E
:10154000D2B20121384617F01BFC51461BF0A0F91E
:101550009AF82830DB0706D5012200973B46114652
:10156000384617F00DFC28461AF036F8A6FB096736
:101570002BA3D3E90023044639463046FEF710FE7C
:10158000D8F80830A3F1310840F21D130893294B15
:10159000CDE90653284B0593EB680493274B20F0C5
:1015A0007F45A5FB03BC072303FB05CCB6EB0B0073
:1015B00067EB0C014FF0000A4FF47A720023CDF86C
:1015C0000CA0FEF7EDFD0B9915A3D3E90023CDE99F
:1015D0000150A1FB0901FEF7E3FD053420F07F4037
:1015E000E4B20090434622460121504617F038FBF2
:1015F00030F002030CD0124A124913484FF48F7393
:1016000022F06FFC404080F311884FF0030002DFAE
:1016100001220221104616F061FD11B0BDE8F08FE5
:101620008D49FD1A0700000040420F00FF59620279
:1016300091C8010065C80100C9C801008D49FD1AA3
:1016400002080300DB060300E8A5020000CA9A3B7B
:101650002DE9F8438846D0E90B91456B164F4C199C
:101660003034A145164612A3D3E9002315D8A1FBB7
:101670000701FEF795FD20F07F40C8F80000A4EBBD
:1016800009000BA3D3E90023A0FB0701FEF788FDA7
:1016900020F07F403060BDE8F883A9FB0701FEF72A
:1016A0007FFD20F07F40C8F8000005F13000E8E73A
:1016B0008D49FD1A0700000000CA9A3B0000000097
:1016C0002DE9F84F044627F061FD257B064615B14C
:1016D00026F00FFE05460FF26809D9E90089DFF808
:1016E00068B04FF0000A60681EF0E8FDA3689B1B1D
:1016F000A360636833446360237B0AF1010A4BB93A
:10170000A368002BEFD1A068003818BF0120404229
:10171000BDE8F88F26F0EDFD294626F0ECFDB0FB84
:10172000FAF70744606942464B46A0FB0B01FEF7FF
:1017300037FD20F07F408742E2D9E4E7AFF3008035
:101740008D49FD1A0700000000CA9A3B0000000006
:101750002DE9F04F8FB0D0F80490DFF8E0B00DF134
:10176000370106460DF1360026F043FE9DF837306E
:101770009DF836A00A9326F0BCFDD9F81040A4FBD2
:101780000B4529A3D3E9002300278046294620469C
:10179000FEF706FDCDE90777254B059306960B90DE
:1017A000D9F8140020A3D3E90023A0FB0B01FEF716
:1017B000F7FC0B9B23F07F491E4B20F07F40A9FBD9
:1017C00003BC072303FB09CCCDE90370B4EB0B008A
:1017D00065EB0C014FF47A720023FEF7E1FC4346FF
:1017E000CDE901900A9A00970321504617F038FA84
:1017F00030F0020313D1104845F6B31120F09CFFDE
:1018000058B19DF837209DF8360003211DF0C4FF24
:101810006FF03B000FB0BDE8F08FB068FAE76FF0F3
:101820004700F7E7AFF300808D49FD1A070000007D
:10183000E1F701008D49FD1ADC1B002000CA9A3B2C
:101840002DE9F047057B044615B126F052FD05460B
:101850000FF28009D9E90089DFF880A00126A3688A
:10186000032B07D81A4AD2F80034DB07FBD5002037
:10187000BDE8F0872368606819681EF055FD63684D
:1018800004336360236804332360A368043BA360CC
:10189000237B0136002BE2D026F02BFD294626F0D3
:1018A0002AFDB0FBF6F70744606942464B46A0FBB1
:1018B0000A01FEF775FC20F07F408742CFD9044A29
:1018C000D2F80034D907FBD54FF0FF30D0E700BF86
:1018D00000E001408D49FD1A0700000000CA9A3B54
:1018E00008B50549054822F0FCFA054B054819885A
:1018F000BDE8084022F0F5BA5BA8020068A5020026
:101900000C6A00206EA5020003689B682DE9F04771
:101910001B6801278F401F42D0E9019804460E46FC
:1019200015460ED12E492F4A2F4840F2EE2322F0C1
:10193000D8FA2E4822F0D5FA2A4840F2EE2122F0B9
:1019400013FB63682A461B683146204698470028E7
:1019500043D1D8F8003015F4C04F23EA0703C8F884
:1019600000303AD0D9F81830002B36D0D4E90038FE
:10197000D3F8089005F4C823B3F5804F0ED11C4965
:10198000184A194840F2A32322F0ABFA194822F072
:10199000A8FA144840F2A32122F0E6FAD9F8003060
:1019A0001F420ED10E490F4A0F4840F2A92322F0E0
:1019B00098FA0E4822F095FA0A4840F2A92122F03E
:1019C000D3FAD8F8187005F4C02305F4B0323146C4
:1019D0002046BC46BDE8F0476047BDE8F08700BF41
:1019E000AAA5020080A50200E8A5020005A6020043
:1019F00017A6020061A6020070B5D0E900369A6809
:101A0000012312688B40134204460D460ED10C4947
:101A10000C4A0D484FF4137322F063FA0B4822F07E
:101A200060FA08484FF4137122F09EFA336A23B12A
:101A300029462046BDE8704018476FF0220070BD6F
:101A4000AAA5020080A50200E8A5020005A60200E2
:101A500038B52A492A48144622F043FA27F0D9FC1F
:101A60004FF47A730A46A0FB030103FB0211254AD7
:101A7000C30B43EA414311681360FA31994200D91C
:101A800038BDB4F1807F14D00ED8B4F5006F09D002
:101A9000B4F5805F27D01C4822F023FA1B4821466A
:101AA00022F01FFA002405E0B4F1007FF3D10324F3
:101AB00000E00224164D2B684FF40241186925F00E
:101AC00077FE2B68211E18BF0121186927F07FF9C6
:101AD000104B18680EF020F9014630B1BDE83840CF
:101AE0000D4822F0FEB90124E4E724B10B48BDE81B
:101AF000384022F0F6B90A48F9E700BF72A80200A0
:101B000068A5020054010020A6A60200B7A60200A4
:101B10005C01002058010020D5A60200F4A60200B6
:101B20000AA70200F8B5104614460F4627F013F92D
:101B30000546204627F017F90646204627F013F9F8
:101B40000446094822F0CDF9B988084822F0C9F9BD
:101B500007482346324669B222F0C3F9BDE8F8408F
:101B6000044822F0BEB900BF55A702001FA702001B
:101B70002CA7020054A7020008B52049024620B154
:101B80001F48BDE8084022F0ACB91E4822F0A9F970
:101B90001D491E4825F024FA024610B117491C4879
:101BA000EFE722F0C2FD032014F0DEFC453020D127
:101BB000184822F096F9184B1848198822F091F924
:101BC0000E49174822F08DF9164B174A174803F1B2
:101BD000200111609A6A164B1A6022F082F91548AA
:101BE00006F09EF9014640B1BDE80840124822F0D7
:101BF00078B9124822F075F9E2E708BD69A8020039
:101C00006FA7020095A70200C89A0200F09A02008E
:101C1000B1A70200DAA702000C6A00206EA502003C
:101C200010A80200546A00205801002028A80200D1
:101C30005C01002035A8020038A80200F2A70200CB
:101C400070B50D461EF0C0FBEDB2044629464FF4B8
:101C50000472FFF759FE2368A6689B6801211B6880
:101C600001FA05F51D420ED11849194A194840F2EA
:101C70008A4322F036F9184822F033F9144840F22A
:101C80008A4122F071F9236836689B681B681D42FF
:101C900006EA05060ED10D490D4A0E4840F2614391
:101CA00022F01FF90C4822F01CF9094840F261416A
:101CB00022F05AF936B96368DB6829462046BDE848
:101CC0007040184763681B69F7E700BFAAA50200C8
:101CD00080A50200E8A5020005A6020010B5204874
:101CE00006F0A6F8014610B11E4822F0FAF81E4888
:101CF0001E4C1EF069FB1E4A20600B21FFF704FEFC
:101D00001B4A20680C21FFF7FFFD194A20681821A3
:101D1000FFF7FAFD1921164A2068FFF7F5FD15496E
:101D2000154B20684B60154B8B604368DB690BB12A
:101D30000122984720680B21FFF75EFE20680C21E6
:101D4000FFF75AFE20681821FFF756FE2068192178
:101D5000FFF752FEBDE8104003480E21FFF770BFA9
:101D6000791B000075A7020054A802006001002042
:101D70001041030048010020511A00000018000320
:101D800030B50A4C0A44914200D130BD11F8013BF4
:101D900058400309E35C83EA0013DDB2C3F3031385
:101DA000E05C80EA0510C0B2EDE700BF91A8020038
:101DB0002DE9F04F85B0837A9B00073303F4FF636E
:101DC00000AFADEB030DE9464368C9F80030884623
:101DD0001546064649460122904520D2347C14F02F
:101DE000010402D021F04CFF0446B8F1000F1EDAC6
:101DF000504A51495148BC2322F073F8504822F010
:101E000070F84C48BC2122F0AFF84FF0FF34307C22
:101E1000214621F03EFF1437BD46BDE8F08F0B6828
:101E20009B0823F0030341F8043F0132D4E759F83B
:101E300028307B6003FB05FB33683B6003EB0B0A38
:101E40002A4607F10C034146304621F001FFFB68AA
:101E50001B68C340DB070DD4364A3A493748A223F2
:101E600022F03FF83848514622F03BF83148A22191
:101E700022F07AF807F10C032A464146304621F059
:101E8000E7FEFA683968012303FA00F0136823EAD1
:101E900000031360F2680C2303FB08231A1D41F8AA
:101EA0000B209A68CAF804209A68C2F800A0C3F808
:101EB00008A02146307C21F0ECFE347C14F00104B3
:101EC00002D021F0DDFE0446B8F1000F9FD007F1EB
:101ED0000C032A464146304621F0BAFEFB68002832
:101EE0001B68B8BF033020F0030023FA00F010F0A5
:101EF0000F038CD125F0030B9C4679680BEB030292
:101F00004A433168881851F802E0D0F804A0013340
:101F1000042BCAF800E0CEF804A041F802C0C0F8D3
:101F200004C0EAD1002DB8BF033508F1FF38AD1069
:101F30005BE700BFA1A80200C9E30200E8A5020018
:101F400009A90200C5A80200E4A802000B68013339
:101F50000B60014B1B681847946A00202DE9F04F75
:101F600085B09B460E9CDFF89090012CB8BF0124F1
:101F7000012B0CBF30232023154606468A460293C8
:101F800001274FF00A080022B5FBF9F301930AB9C3
:101F9000A9451FD8019B514603F13000B0470137D6
:101FA0000122019B08F1FF38B8F1010F09FB13551D
:101FB0004FF00A03B9FBF3F9E6D1514605F13000C1
:101FC000B047BBF1030F02D1E41B002C0EDC05B0BF
:101FD000BDE8F08F4445E4DBBBF1020FE1D8029885
:101FE00003925146B0470137039ADAE75146202061
:101FF000B047013CE9E700BF00CA9A3B014B1860BB
:10200000704700BF946A00202DE9F04F8DB01C4648
:102010000027531E05468B4603934FF0FF39B84601
:10202000002605E06EB9252800F071815946A847C1
:10203000039B13F8010F03930028F3D10DB0BDE803
:10204000F08F7A280AD8622810D8302854D045D882
:10205000252800F05A812D2800F05F81594625205F
:10206000A847039B18785946A847D9E7A0F163030E
:10207000172BF3D801A252F823F000BF032300006E
:10208000472100005D2000005D2000005D20000071
:1020900029210000472100005D2000005D20000094
:1020A000292100005D2000005D2000005D2000006F
:1020B000E92100005D2000005D200000D322000027
:1020C0005D200000B72100005D2000005D200000C1
:1020D000E52000005D2000002921000039281AD9E0
:1020E0005828BBD1039B1B78702B40F0888054F894
:1020F000043B0693002290E0B9F1000F0EDAB8F12C
:10210000000F00F00D81A0F13009B8F1000F08BFF9
:102110004FF002088CE7B9F1000FF4DB0A2303FB50
:102120000909A9F13009F0E7682803D1682F06D121
:1021300048277DE76C2802D16C2F00F0F480002F37
:102140008CD1074674E77A2F02D154F8046B21E052
:102150006C2FFAD04C2FF8D1073424F00704F4E8A0
:102160000223CDE90423049B13F10041059B089150
:1021700043F100010991DDE9082300214FF0FF3010
:10218000994208BF904204D25946284621F088FE61
:1021900046E7049E002E05DA59462D20A8477642D0
:1021A00009F1FF39CDF8009043463246594628469A
:1021B000FFF7D4FE34E77A2F02D154F8042B0FE056
:1021C0006C2FFAD04C2FF8D1073424F00704F4E830
:1021D000022300214FF0FF30994208BF9042D3D331
:1021E000CDF800904346E1E759463020A8475946CC
:1021F0007820A8474FF008094FF0010872E76C2FCC
:102200003FF475AF4C2F7FF472AFE31D23F007034B
:102210001C4654F8082B06925A680021102304919A
:1022200007914FF0400AAAF1040A0699CAF1200E5C
:10223000AAF1200C21FA0AF002FA0EFE40EA0E0082
:1022400022FA0CFC40EA0C0010F00F0007D10799AD
:1022500011B9BAF1000F25D14FF0300C05E0092873
:102260008CBF4FF0570C4FF0300C6044594640B2D1
:102270000A920793A847049B0A9A01330493079B89
:10228000BAF1000F23D1B8F1030F7FF4C9AE049B5C
:10229000C3EB4906002E7FF7C3AE59462020A8475E
:1022A000013EF7E7591E99450A9107DBB8F1010F86
:1022B00006D10B9259463020A8470B9A0A9BB2E7E9
:1022C000B8F1020FFAD10B9259462020F4E7079695
:1022D000A9E754F8046BB24653461AF8010B68B9E3
:1022E000B8F1030F21D19E1BA9EB0606002E7FF744
:1022F00097AE59462020A847013EF7E75946A84720
:10230000EAE754F8040B5946AEE65946ACE63746C0
:10231000B0464FF0FF3901268AE64FF0030887E602
:102320004FF0010884E64C2782E6064680E600BFAF
:1023300007B50B46002102460191034801A9FFF7AA
:1023400063FE03B05DF804FB4D1F000030B585B09F
:10235000CDE90101044600250548039501A9FFF7D1
:1023600053FEDDE902309842B8BF255405B030BDB8
:10237000BD3E020030B50E490E4887B0002227F05E
:1023800071F80D4D0D4900240E23CDE90243CDE92E
:102390000444CDE900440A4B4FF44072284620F033
:1023A000A1FA0849284620F063FA204607B030BD5C
:1023B000C923000078010020C0010020E024002093
:1023C0009D28000019A90200014820F071B900BF42
:1023D000B07500202029F8B505460C4609D91449E6
:1023E0001448154A5B2321F07CFD13485B2121F042
:1023F000BBFD002003460246012715F8011B09B169
:10240000A34200D3F8BD252902D182F00102F4E7EE
:10241000002AF2D041F02006613E192EEDD8732932
:1024200004BF07FA03F2104301330022E5E700BFBF
:102430004EA90200E8A5020021A9020008B500F09B
:10244000A9FA094821F098FD0423282207490848E1
:1024500026F0AFFE074B084A1A604FF40040BDE873
:10246000084000F08BBD00BF70010020144D00201B
:10247000A4010020986A0020BD3F0200F8B5104B6F
:10248000BFF35B8F002553E8007F43E80052002A2A
:10249000F9D1BFF35B8F0B4C0B4E361B3611B54297
:1024A00000DBF8BD204621F07DFD28B12368DB6804
:1024B00013B139462046984701351034EFE700BF85
:1024C00068010020E8990200089A0200064BBFF359
:1024D0005B8F53E8002F013243E800210029F8D137
:1024E000BFF35B8F704700BF68010020044A054BB3
:1024F0009B1AB1EBD30F34BF52F831000020704764
:1025000030980200E899020070B5104C041B2411A9
:10251000013405460E46E4B248B90D490D480E4A4D
:10252000C02321F0DEFC0C48C02121F01DFD6B68AA
:102530001C710A4C1E6001225A71227812B9084897
:1025400020F0B6F80123237070BD00BFE8990200A7
:1025500093A90200E8A5020066A90200301F00202E
:10256000B075002070B5184B184CE41A902C0BDD98
:1025700017491848184A4FF4F97321F0B2FC16486D
:102580004FF4F97121F0F0FCBFF35B8F134B53E86C
:10259000005F6A1C43E800210029F8D1BFF35B8F7C
:1025A0001DB9094E2411A54200DB70BD337B43B138
:1025B00033685B6903B19847042200213046FFF776
:1025C000A3FF01351036EEE7E8990200089A0200F1
:1025D000AAA90200E8A5020021A902006C010020BE
:1025E000164B984237B5044602D3154B98421FD379
:1025F0001448002201A91EF0C3F80546D8B90122EB
:10260000019BBFF35B8F53E8001F43E800200028C5
:10261000F9D1BFF35B8F019821461F22043023F0CC
:10262000F0FA019C7E2384F8233084F8245004348B
:10263000204603B030BD044CFAE700BF809502008D
:102640009C170300A4010020CDA9020048B1054B4E
:10265000984205D3A03398422CBF00200120704738
:1026600000207047144D00204E4B1B782DE9F74F8A
:10267000044603B960B34FF02003EFF3118683F3F0
:102680001188BFF36F8F484821F086FC054686F31A
:102690001188BFF36F8F78B1BFF35B8F434B53E863
:1026A000002F013A43E800210029F8D1BFF35B8FE6
:1026B00094B1284621F06AFD24B93D4B1B680BB14B
:1026C000FFF7DCFE384821F065FC041E18BF01242A
:1026D000204603B0BDE8F08F364B1B78B3B92B7A98
:1026E000DB0713D421F065FD8146284621F02CFD3F
:1026F00001464846FFF76EFE2F4A304BDFF8E0A058
:1027000001929B1A07464FEAD30B37B92C4E2D4F37
:10271000BF1B3F114FF0000841E0B7FA87F8C8F13E
:102720001F084146284621F012FD274B98420246D9
:1027300002D3264B984220D31046FFF787FF064668
:10274000D8B9234B9A4218D06B8922492248BBEB57
:10275000931F4FEA931284BF019B53F83260AD235D
:10276000524621F0BEFB1D4841464B46324621F001
:10277000B8FBAD21504621F0F7FB012303FA08F81E
:1027800027EA0807C1E7304621F00CFC20B1336886
:1027900029461B683046984708F101081036B845AD
:1027A000F1DB86E7301F002070010020640100206B
:1027B00068010020311F002030980200E8990200D3
:1027C000E8990200089A0200809502009C17030015
:1027D000CDA90200C9E30200E8A50200E7A90200B2
:1027E00021A90200264B70B51B6841810446984719
:1027F000244DE060BFF35B8F55E8003F013345E8AF
:102800000032002AF8D1BFF35B8F4FF02003EFF3C3
:10281000118683F31188BFF36F8F1B48214621F087
:10282000AFFB86F31188BFF36F8F184B1A787AB11C
:102830004FF02003EFF3118483F31188BFF36F8F00
:102840000020FFF711FF84F31188BFF36F8F70BD75
:102850000F492B6809680029F9D0012B06D10D48D2
:10286000BDE870404FF47A7120F0AABD0A2BEED17A
:10287000084826F003FE0848BDE870401FF018BF66
:10288000986A00206401002070010020311F0020A0
:102890005402002078010020B075002008B5154AC8
:1028A000154B9B1A002B0BDC14491548154A40F2B6
:1028B0007F4321F016FB134840F27F4121F054FB87
:1028C000FFF750FE1FF0EEFE0F4B186030B10F4BBC
:1028D0001B68092B02DD0E481FF0EAFE0C4C00209D
:1028E000FFF7C2FE0028FAD14FF0FF3120461FF05B
:1028F00023FFF4E7E8990200089A020028AA0200E0
:10290000E8A5020021A90200540200206401002071
:10291000B0750020F8B50F4F3D7875B90E4C0F4ECD
:10292000FFF720FE361B3611B54207DB0020FFF70C
:102930009BFE0028FAD101233B70F8BD204621F010
:1029400031FB18B1236820461B69984701351034C4
:10295000EAE700BF311F0020E8990200089A020050
:1029600007B504380190BFF35B8F50E8003F5A1E53
:1029700040E800210029F8D1BFF35B8F012B03D180
:10298000034801A91DF060FF03B05DF804FB00BF20
:10299000A40100202023024902481A4626F009BC5F
:1029A000B44D00205802002037B50023094D019393
:1029B0000120FFF759FE0446FFF788FD002201A918
:1029C00028461DF0DDFE08B1002CF1D1019803B0BE
:1029D00030BD00BF5802002007B500220648019212
:1029E00001A91DF0CDFE10B1FFF7DEFF01900198A7
:1029F00003B05DF804FB00BF58020020F0B5037A75
:102A0000467A85B0D90701904FEA16160ED5019B7C
:102A10001A7A920704D55B69184C0393039B33BB66
:102A2000164801A91DF010FF05B0F0BD002EEED034
:102A30000024254617E0294621F089FB0746FFF7C9
:102A400005FE78B13CB9019B31461869FFF7C2FC1D
:102A500004460028DBD024FA05F3DB0702D538460C
:102A6000FFF77EFF0135AE420198E4D8CFE71D683D
:102A700003A920461DF0E8FE0395CFE75802002089
:102A80000E2A2DE9F84F8146884615460BD92D4967
:102A90002D482E4A4FF49B7321F023FA2B484FF414
:102AA0009B7121F061FAFFF797FF044630B30123D1
:102AB0000027032D4360078109D902220281A5F175
:102AC000020A00F1140B4761BAF1000F0EDC637AC1
:102AD000C4F8109065F30713032D637218D8AA0089
:102AE000414604F1140023F0DFF807E0FFF774FF1C
:102AF000064630B92046FFF781FF34462046BDE840
:102B0000F88FCBF80000AAF1070A07608346DBE7DD
:102B10004146082204F11800676923F0C5F8023D18
:102B200008F10808072D2E4628BF07264FEA860918
:102B30004146381D4A4623F0B7F8AD1B3F68C844EC
:102B4000F0D1DBE774AA0200E8A5020048AA02005F
:102B50000EB403B503AB014653F8042B04480193AC
:102B6000FFF752FA002002B05DF804EB03B07047A3
:102B7000A92D00002DE9F04F85B011F00204904618
:102B80009DF8387006461A4601F0010901F0080563
:102B900007D011F0440F37D13249FFF7D9FF014672
:102BA0000C46B9F1000F0AD02F4B304953F82720BB
:102BB0002F4B3046002A08BF1A46FFF7C9FF3DB128
:102BC0002C4B2D4953F827203046FFF7C1FF05460F
:102BD000B8F1000F43D0012303FA07F7274B17F092
:102BE000100F274F18BF1F46BDF840109DF83C003E
:102BF000FFF77CFC394602463046FFF7A9FF284420
:102C0000204405B0BDE8F08F1E4B19680029C7D0DD
:102C10001D4B4FF4616E1B68B2FBF3F34FF47A7CEB
:102C2000B3FBF1F4B4FBFEF20EFB124E01FB1434C5
:102C30000CFB04F44FF03C0AB4FBF1FB01FB1B441A
:102C40000CFB04F4BEFBFAF3B4FBF1F1CDE901B1E6
:102C50000AFB13E100910D49FFF77AFF9FE7084F48
:102C6000C2E700BF8DAA0200309B02008AF9020071
:102C70007FAA0200449B0200B2AA020089AA0200B5
:102C800084AA0200740200207802002096AA0200A2
:102C900038B50C46E107054603D5084A0849FFF751
:102CA00057FFE20608D4A30628464CBF054906494B
:102CB000BDE83840FFF74CBF38BD00BF7FAA020017
:102CC0008AF90200240D0300B8AA02002DE9F0479A
:102CD0001D46089B1746DA0604460E4605D499069B
:102CE0004CBF2A492A49FFF733FFDFF8AC904FF079
:102CF0000008A8452ADBDFF8A480DFF8A490DFF8FD
:102D000098A00025BD422FD2725D49462046FFF7AC
:102D10001FFF0135102D20D11E49DFF87C80DFF820
:102D200084902046FFF714FF0025AF4228D9725D3A
:102D3000A2F120035F2B28BF2E2249462046FFF731
:102D400007FF0135102D14D1BDE8F0874946204614
:102D5000FFF7FEFE08F10108CBE76A07D2D1514622
:102D60002046FFF7F5FECDE741462046FFF7F0FE8F
:102D7000CFE76B07D9D141462046FFF7E9FED4E7FC
:102D800041462046FFF7E4FEDBE700BF240D0300C9
:102D9000B8AA0200C5AA0200C3AA0200C1AA020082
:102DA000BBAA0200C7AA020038B54B681A68CB68F4
:102DB0009A4205460C4602D1084621F06DFB636835
:102DC000BFF35B8F53E8002F511C43E8001000282D
:102DD000F8D1BFF35B8FA3689D5463681A68E368FA
:102DE0009A4209D905490648064A782321F079F81C
:102DF0000448782121F0B8F8002038BDF9AA020073
:102E0000E8A50200CAAA02002DE9F0478B7A13F068
:102E1000070716468AB00A7A04460D461FD049892C
:102E2000C3F3C2038909D243CDE900730291EB6871
:102E300002F001023146FFF79DFE81462B7ADB430B
:102E400013F001080DD02146284621F0C8F9002FC3
:102E50003CD03A4631462046FFF71AFF36E0B946E5
:102E6000ECE7002F38D1E3685BB92A492A482B4A9E
:102E700040F2B91321F035F8284840F2B91121F099
:102E800073F80026E368069306AA3346A16828462D
:102E900021F091F9069A63681A604AB1A368134455
:102EA00013F8018CA8F10A03D3F1000848EB0308DA
:102EB000204621F0F1FA069B1E44002BE2D1B8F126
:102EC000000F03D016492046FFF742FE204621F0AE
:102ED000E3FA0AB0BDE8F087284621F06AF9114903
:102EE00002462046FFF734FE4FF0100A05AA43467B
:102EF00006A92846CDF814A021F05DF9059A002A0C
:102F0000A7D04B46009606A92046FFF7DFFE059B9B
:102F10009844EBE729AB0200E8A50200CAAA020028
:102F20003AAB02008AF9020073B5D0E900435D684C
:102F30000F4A42F20F738B4228BF0B4668460521A9
:102F400002F0A6FF2B4606460A4920460B2221F036
:102F500039F92B4632466946204621F033F90649B5
:102F60002B461B22204621F02DF902B070BD00BF78
:102F70006AEA020074AB020058AB0200084A10B5BE
:102F80000123084C13600021A04204D801B1136052
:102F9000054B186010BD40085B000121F4E700BF3D
:102FA0007802002040420F0074020020014821F006
:102FB00073BA00BF709B02000148FFF7B5BF00BFA6
:102FC000709B020010B509481DF0FEF9044648B98F
:102FD00007490848084A2D2320F083FF06482D2181
:102FE00020F0C2FF054B5C6010BD00BF80AB02004B
:102FF000BCAB0200E8A5020087AB020084020020FF
:1030000010B508460C4621F092F8054821460F22DB
:10301000FFF7FAFE2046BDE8104021F0B7B800BF28
:10302000709B0200014B01221A707047431F002061
:1030300008B5034821F030FA024B01221A7008BD8E
:10304000989B0200441F00200148FFF76DBF00BF9E
:10305000989B020010B508460C4621F068F8054818
:1030600021460F22FFF7D0FE2046BDE8104021F098
:103070008DB800BF989B0200044B1B781BB141F236
:10308000883026F03FB905201FF0D0BA441F002039
:103090002DE9F84FDFF88C90DFF88CB007460E462C
:1030A0000424CA4699F8003023B94FF0FF3158463E
:1030B0001DF03AFD32463946002001F0FFF99AF83A
:1030C0000030804613B958461DF00CFE144DB8F17F
:1030D000000F18D001232B709AF8003033B9304616
:1030E000BDE8F88F5CB92C704FF0FF34002001F080
:1030F00031FA0028F3D02B78002BF3D1EFE7013C15
:10310000FFF7BAFFF2E72B7813B1013C04D12C7022
:103110002B78002BC6D1E2E7FFF7AEFFF8E700BF40
:10312000431F0020441F0020207600202DE9F0439B
:10313000082385B00D460968047C074621F0CCF9C8
:1031400068B90821204621F013FA2968BB89014497
:103150008AB21B1A9A420646296003D0002005B0A5
:10316000BDE8F0830B0C03BFFB8903F1FF3301EBD8
:103170000341A1F58031296008236A46384621F0D1
:10318000ABF90028EBD16A46034612F8011BFF2970
:1031900015D10133082BF8D17B682B60DFE7BB89A1
:1031A000BDF802109B1B99420FD2B1FBF6F306FB50
:1031B000131353B9240C24040C442C60CFE7684645
:1031C00021F0C1F92C680028E9D0104BA41B2C6019
:1031D00004EA03089946A045C0D208230DEB030278
:1031E0002146384621F078F90028B8D102A821F00C
:1031F000AAF940B9BDF80A30BDF80C202C6008EAE5
:10320000090813449844A41BE5E700BF0000FFFF32
:103210002DE9F04F054695B0007C082121F0A8F972
:103220006B681B0C1B04064603A9E889039321F075
:10323000A9F9039BA98906AF1944891B08233A46BB
:103240002846049121F048F9041E71DB0023FA5C42
:10325000FF2A71D10133082BF9D10399284621F0B7
:10326000C0F9044664E057453E4628BF56463346FB
:103270000CAA4146284621F02FF90446002857D1D0
:1032800036B1A96833460CAA284621F0D0F9044685
:10329000287C314621F06CF9AA680244AA60002C0F
:1032A00046D1AAEB060AB04438E0019B5B45D4D076
:1032B00008AA04A92846DDF810B0FFF737FF044636
:1032C000002835D16B6805930AAA05A92846059FF1
:1032D000FFF72CFF044658BBBDF82820BDF820306E
:1032E0009A42F1D10AA821F02EF90028ECD15F45CD
:1032F000DBD1BDF82430002BD7D0BDF822300BEA4B
:103300000908984408A8AB68ADF8223021F027F9E5
:103310002F7CBDF824A07F4207F02007BAF1000FF0
:10332000A1D108A9284621F0C6F904460028BCD03E
:10333000204615B0BDE8F08F049BBDF81A109A1B0B
:103340000192034A13400B4404939146B0E700BF37
:103350000000FFFF2DE9F043044687B00D4600F161
:103360001406304625F059FF28461DF02DF8A062BE
:1033700078B9914B91499248C91AC908890141F01D
:10338000010120F01FFE6FF00505284607B0BDE8DB
:10339000F08343681B7D2374202B0CD98749864B0F
:1033A0008848C91AC908890141F0010120F00AFEC4
:1033B0006FF01505E9E7A06A216803AA25F0A4FECD
:1033C00040B17E497C4B8048C91AC908890141F047
:1033D0000101EBE7A3892BB1049AB3FBF2F502FBE1
:1033E000153545B17549744B7848C91AC908890122
:1033F00041F00101DAE7E389012B08D86F496E4BF0
:103400007348C91AC908890141F00101CEE7009546
:103410004FF0FF3130461DF087FB207C082121F062
:10342000A7F8A9460746E3891FFA85F8434505D85A
:10343000E3894B451ED16FF02005A6E7A1892B0437
:10344000C91B13FA81F108222046009121F0A5F84A
:1034500070B1E089694621F095F809F101090099F8
:10346000082220461FFA89F921F097F80028DFD0BA
:103470000135D8E798450AD100990822C91B204692
:1034800021F08BF818B9E089694621F07BF8009BA0
:10349000DA1B62604F4A1340A3609046D4E90113DF
:1034A00099420ED3082301AA204621F015F80546BB
:1034B00018BB01AB13F8012BFF2A65D10135082D8C
:1034C000F8D1D4E901218A4206D9521A204621F0C6
:1034D00064F8051E11DB3AD16368DFF8F880E089F3
:1034E00003EA08036946009321F04CF8A289009989
:1034F000204621F052F8051E2EDA30461DF0F2FB70
:10350000002D7FF442AF012363742C4E2A4BA28915
:10351000E1893148F61AF608B60146F0030633464B
:1035200020F071FD61682D4833468AB2090C20F005
:103530006AFDA1682A488AB23346090C20F063FD6F
:1035400023E7B9F1000F34D06FF01C051DE7A36825
:10355000227C1344A360B4E7CFD06168204621F0F9
:1035600040F805460028C8D16368A08903EA08032B
:103570000344A3EB4700606000EA0800A060204617
:10358000FFF746FE0546B8E701A820F0DCFF6568B6
:1035900078B90098BDF80620BDF8089000EA080048
:1035A00002444946207C20F0E3FF1044A842A0607A
:1035B000C7D0ED1B656071E730980200A899020042
:1035C000F5AB020011AC02002EAC020046AC0200CA
:1035D0005AAC02000000FFFF7DAC020094AC020078
:1035E000A6AC02002DE9F04F1E46437C89B004468C
:1035F000894690467BB9674B67496848C91AC9082C
:10360000890141F0010120F0DDFC6FF00C05284636
:1036100009B0BDE8F08F90F810B00821584620F0AE
:10362000A7FFA38900EB40029B1AB3428246C0F079
:10363000AC801EB1B8F1000F00F0A780636803935F
:1036400004AA03A92046039FFFF770FD0546002842
:10365000DDD1BDF810304B4505D06268039B9A421E
:10366000EED1D6B9D3E704A820F06DFF0028F4D13D
:10367000BDF814307EB1B3420FD1BDF81200390C41
:103680000904014433464246204620F033FF002817
:1036900003DC0546BBE7002BB9D03146584620F085
:1036A00067FF074600283DD104F1140A4FF0FF31AF
:1036B0005046DFF8ECB01DF037FA0023E289934260
:1036C00060D0D4E90121781882422ED3FF2306A8C6
:1036D000ADF81890ADF81A10ADF81C608DF81E30DA
:1036E00020F03DFF36B1A16833464246204620F027
:1036F0009EFF0546207C314620F03AFFA368034434
:10370000A360002D44D106A9204620F0D4FF054631
:1037100000283DD13246019250461DF0E3FA019A4D
:10372000154674E75744BFB2BEE7207C01930821D9
:1037300020F01EFF4FF6FF71ADF818100021ADF814
:103740001C101118ADF81A10A18902EA0B020A44E4
:10375000101A606006A820F002FF06A9204620F09B
:10376000AAFFE089211D20F00DFF626802EA0B022A
:10377000A2602046FFF74CFD02460028CBD1019BFA
:1037800001339BE76FF01B02C5E76FF015053EE7BD
:103790002A46C0E730980200A8990200E1AB020077
:1037A0000000FFFF2DE9FF471E46437CBDF8309027
:1037B00004460F46904673B92B4B2C492C48C91A26
:1037C000C908890141F0010120F0FCFB6FF00C00F9
:1037D00004B0BDE8F087007C082120F0C9FEA38971
:1037E000A3EB4003B3423BD3636801934FF0000A5D
:1037F00002AA01A92046019DFFF798FC0028E7D105
:10380000BDF80830BB4207D102A820F09CFE18B9D1
:103810000AF1010A1FFA8AFA6268019B9A4218D0DB
:10382000CA45E5D9BDF80C30BBB1CA4515D3BDF8C2
:103830000A102D0CB3424FEA054528BF33464246D5
:103840002944204620F048FE0028C1D1BDF80C00D4
:10385000BEE7BDF80830BB42E4D06FF00100B7E727
:103860006FF01500B4E700BF30980200A89902007D
:10387000E1AB0200094B30B51D68094B02461C68DC
:1038800000239D4201DC002030BD190104EB031030
:10389000615C9142F8D00133F3E700BFF89B02006E
:1038A0009C6A0020084B1B6810B50C462BB1FFF733
:1038B000E1FF28B12060002010BD6FF00C00FBE795
:1038C0006FF00100F8E700BF9C6A002030B589B0B6
:1038D0000C4615460190FFF7CDFFB8B1436802933F
:1038E00083682268C068CDE903350023CDE906234B
:1038F00005931CF069FD60B1074901AA25F008FC99
:10390000079808B9059B236009B030BD6FF015001A
:10391000FAE76FF01200F7E7EF4602000F4B2DE9D0
:10392000F0411C6805460E4617469CB14FF0FF312A
:103930000B481DF0F9F863683246D3F80880294631
:103940003B462046C047044605481DF0CBF92046BB
:10395000BDE8F0816FF00104F9E700BFAC02002080
:103960000C76002000230360044B5A6812B9C3E9A7
:103970000000704710605860704700BFA40200202C
:10398000014B1860704700BFAC02002030B585B015
:1039900000230546CDE9023301900E484FF0FF3178
:1039A0001DF0C2F80C4B1C68002C38BF00243CB141
:1039B000636820461B6801A998472468002CF6D14B
:1039C000284600F0EFF8044602481DF08BF9204627
:1039D00005B030BD0C760020A40200201FB5CDE953
:1039E000010103920C484FF0FF311DF09DF80B4B85
:1039F0001C68002C38BF00243CB1636820461B685B
:103A000001A998472468002CF6D103481DF06AF9F3
:103A1000002004B010BD00BF0C760020A4020020DE
:103A2000024B0022C3E90022704700BFA40200201D
:103A3000024B0022C3E90022FFF7F2BFB0020020D0
:103A40002DE9F34707460E4609B100230B60DFF866
:103A5000B080264CDFF8AC900025C24644450CD916
:103A60002349244894234A4620F03BFA224820F078
:103A700038FA9421484620F077FA544508D31F4B72
:103A80001C680CB1143CC4B9284602B0BDE8F087EC
:103A9000216801AA384620F04FFE60B125B90EB169
:103AA000019B3360254606E029682068002220F04B
:103AB00043FE0028F3D11434D0E7216801AA384628
:103AC00020F03AFE60B125B90EB1019B3360254666
:103AD00006E029682068002220F02EFE0028F3D19D
:103AE00014F1140FD0D06469CBE700BFF497020043
:103AF00003AD0200E8A502002BAD0200B0020020D9
:103B000030980200D1AC02002DE9F04385B00546A3
:103B1000DDF8308003900C4616461F46B8F1000FC2
:103B200018D0D8F8001081B103AA20F005FE60B9C2
:103B3000002007E0D8F80830009303983B4632464F
:103B40002146C84705B0BDE8F083D8F80490B9F124
:103B5000000FEFD103A92846FFF772FF0028E7D036
:103B6000D0F80880039832463B462146C0470646B7
:103B70000028DDD0084B094C2846E41AE408FEF77B
:103B80002FFDA40144F001040146234604483246B7
:103B900020F039FACCE700BF30980200D899020033
:103BA0004AAD02002DE9F843234F244CDFF8A080F2
:103BB00006460025B946BC420CD921492148F423C8
:103BC000424620F08EF9204820F08BF9F42140463F
:103BD00020F0CAF94C4507D31C4B1C680CB1143CAF
:103BE000A4B92846BDE8F8831EB9E3684BB914347C
:103BF000E1E720680022314620F09EFD0028F4D144
:103C0000F5E79847002D08BF0546F0E736B9E368A9
:103C100063B914F1140FE4D06469DFE7206800226F
:103C2000314620F089FD0028F1D1F2E79847002DB8
:103C300008BF0546EDE700BF30980200F497020088
:103C400003AD0200E8A502002BAD0200B002002087
:103C5000D1AC020010B5064C23783BB9FFF7E8FE63
:103C600000F064F808B90123237010BD0020FCE7C0
:103C7000451F00202DE9F047848EDFF8ACA0013409
:103C800098B080468946A4B200F10806651EADB220
:103C9000B5F5004F45D04A2305AA2946304620F005
:103CA0001FFD04F57F543F34A4B20746214601238B
:103CB0000DF10B02304620F013FD002F014603DC0E
:103CC000002803DC2C46E1E7002816DCB8F8343085
:103CD000AB4209D142466B1E22F8343F4FF40041FB
:103CE00002233046FFF77EFC2946304620F0F4FCE4
:103CF0002146304620F0F0FCE4E718AB1F440023D7
:103D000007F84C3C5246CDF8009003AB05A803964B
:103D1000ADF81040FFF7F8FE0028D3D018B0BDE88A
:103D2000F0870020FAE700BFAB4702007FB5012310
:103D3000694604200193FFF7B5FD0446002836D1FB
:103D400002AA01A90420FFF7C1FD10F1130F0446D8
:103D50002DD038B10C3405D0404080F311884FF09D
:103D6000040002DF0399B1F5803F23D2009A0023BB
:103D700095681846084485429CB203D30133082B4A
:103D8000F8D11C460D4D5368AB602846D368EC82D1
:103D9000A982AB6320F09EFD044640B9084E6E60D8
:103DA0002846FFF7DFFD28466E60FFF7E9FD204655
:103DB00004B070BD6FF02404F9E700BFB802002022
:103DC000A06A002010B50748074C1CF0FDFA074B0D
:103DD0001860204602F056F82046FEF70FF9002042
:103DE00010BD00BF80AB0200F13D0000F4020020D6
:103DF0000A2838B5074D044604D1286843680D21C8
:103E00005B68984728684368E1B25B68984720463A
:103E100038BD00BFF402002038B5CCB2012C0546F5
:103E200009D90B490B480C4A7D2320F05AF80A485F
:103E30007D2120F099F8AB680C2104FB01314B7A0D
:103E400023B9087AB0FA80F0400938BD0220FCE7B7
:103E5000B0AD0200E8A5020075AD02002DE9F84FF3
:103E6000CEB2012E07468946144609D94049414839
:103E7000414AED2320F035F83F48ED2120F074F859
:103E80003B68D7F80880D3F808A0002C51D14FF038
:103E90002003EFF3118B83F31188BFF36F8F0C2393
:103EA00006FB03831D7A0135EDB21D724DB933490E
:103EB0003048314AFE2320F014F82F48FE2120F02C
:103EC00053F88BF31188BFF36F8F44B34FF08043E7
:103ED0000322C3F808230C22724308EB0203597A29
:103EE00091B94FF02000EFF3118C80F31188BFF3EC
:103EF0006F8F21605868002833D15C6048F8024019
:103F00008CF31188BFF36F8F4FF080430322C3F807
:103F1000042321B1D4E90132494638469847012D9E
:103F200005D10AEBC606B37803F180431D6000207B
:103F30001CE063684BB912490E480F4AF1231FF089
:103F4000D0FF0D48F12120F00FF80C23734358F8EF
:103F500003309C4208D0002B99D01B68002BF8D16D
:103F600095E704605C60CBE76FF00F00BDE8F88F69
:103F7000B0AD0200E8A5020075AD020022AE02005D
:103F8000D4AD020070B5CCB2012C054609D919494F
:103F900019481A4A92231FF0A4FF184892211FF0D3
:103FA000E3FF2B68AD6899684FF02003EFF31186AB
:103FB00083F31188BFF36F8F0C226243AB18187A1A
:103FC00090B10138C0B2187288B901EBC404A8508E
:103FD000E278586002F1804201211160587286F344
:103FE0001188BFF36F8F70BD6FF04400F7E70020BA
:103FF000F5E700BFB0AD0200E8A5020075AD020014
:10400000F8B5124EB3680C2404FB003401230546B6
:1040100063724FF02003EFF3118183F31188BFF334
:104020006F8F23682BB160681A682260834208BFD3
:10403000626081F31188BFF36F8F03B9F8BDD3E9D4
:10404000017229463046B847E3E700BFD874002024
:10405000154B07B51A6882B14FF08042D2F804239D
:10406000D1070AD500221A601B680093009B0F4BF2
:104070009B68587A08B9FFF7C3FF0D4B1A6882B1E5
:104080004FF08042D2F8042392070AD500221A602A
:104090001B680193019B012003B05DF804EBFFF75F
:1040A000AFBF03B05DF804FB00010040D8740020EE
:1040B0000401004010B5064C064907482246172364
:1040C0001FF00FFF20461721BDE810401FF04CBF26
:1040D00054AE0200C9E30200E8A5020038B5224C44
:1040E0000023C4F840314FF02003EFF3118583F330
:1040F0001188BFF36F8F1D481EF0E8FC68B91C4A99
:104100001C491D484A231FF0ECFE18491B481FF0AC
:10411000E8FE17484A211FF027FF14481EF0F4FC60
:10412000174AD4F8044513681048E41A24F07F4471
:10413000234413601EF0D8FC68B90D4A11490E489B
:104140005D231FF0CEFE09490F481FF0CAFE084844
:104150005D211FF009FF85F31188BFF36F8F2046A3
:10416000BDE838401FF00AB80010014014030020D9
:1041700090AE0200B2AE0200E8A50200C7AE020097
:1041800010030020DFAE0200F6AE020073B518483F
:104190001CF01AF948B34368164D1B680121984773
:1041A000002401264FF48033C5F80845C5F8406562
:1041B000C5F8043303F1804303F58A534FF400320A
:1041C0001C601B680193019B0B4B3146C3F8802197
:1041D0001120224600F0F2FB112000F0BDFB074B3E
:1041E00020461E602E6002B070BD4FF0FF30FAE72F
:1041F00034AE02000010014000E100E00810014070
:10420000F8B5394CB0F1FF3F18BF04464FF020031A
:10421000EFF3118583F31188BFF36F8F33481EF0DE
:1042200055FC68B9324A334933484A231FF059FED6
:104230002E4932481FF055FE2D484A211FF094FEAA
:104240002A48294F1EF060FC2D4A2E4BD2F8041547
:104250001B68C81A10F4000F20F07F462BD1601E97
:1042600020EAE070B842A8BF3846741C2044B84227
:1042700094BF1B18DB19591A21F07F4123F07F40AE
:104280000229C2F8400518D918481EF02DFC68B95B
:10429000174A1D4918485D231FF023FE13491B4888
:1042A0001FF01FFE12485D211FF05EFE85F311888E
:1042B000BFF36F8FF8BD0020D7E7D2F8041514487C
:1042C000591A21F07F414C1E844205D9114B4FF4FD
:1042D0000032C3F80021D7E7012902BF023323F0DF
:1042E0007F43C2F84035CFE7FEFFFF0014030020F4
:1042F00090AE0200B2AE0200E8A50200C7AE020016
:104300000010014010030020DFAE0200F6AE0200F4
:10431000FEFF7F0000E100E038B54FF02003EFF32F
:10432000118583F31188BFF36F8F1A481EF0CEFBFF
:1043300068B9194A19491A484A231FF0D2FD15498C
:1043400018481FF0CEFD14484A211FF00DFE1148F9
:104350001EF0DAFB144B0F48D3F80445134B1B68CF
:10436000E41A24F07F441EF0BFFB68B90A4A1049E2
:104370000B485D231FF0B5FD06490E481FF0B1FD47
:1043800005485D211FF0F0FD85F31188BFF36F8FA5
:10439000204638BD1403002090AE0200B2AE0200E9
:1043A000E8A50200C7AE0200001001401003002083
:1043B000DFAE0200F6AE020038B54FF02003EFF397
:1043C000118583F31188BFF36F8F1B481EF07EFBAE
:1043D00068B91A4A1A491B484A231FF082FD164938
:1043E00019481FF07EFD15484A211FF0BDFD1248F7
:1043F0001EF08AFB154B1048D3F80445144B1B687C
:10440000E41A24F07F441C441EF06EFB68B90B4A8A
:1044100010490C485D231FF064FD07490E481FF04A
:1044200060FD06485D211FF09FFD85F31188BFF3F5
:104430006F8F204638BD00BF1403002090AE0200ED
:10444000B2AE0200E8A50200C7AE020000100140B3
:1044500010030020DFAE0200F6AE020010B5114CD2
:10446000114AA2610323C4E90433104BE3612266BD
:104470004FF480630E4A0F492362626600231022C4
:10448000E01DA3626362E3622367E3666367A2667B
:1044900021F0ADFB0849204621F0A9FB2023A371A0
:1044A00010BD00BF180300200BAF0200561F0020F4
:1044B000461F002014AF020018AF02002DE9F84F8C
:1044C000234F4FF0180B14460BFB00720646936AFD
:1044D000556AAB42884634D8D2F820A0AAEB050929
:1044E00009F1FF32944211D84FF0180906FB0993E5
:1044F0003B44224658684146284421F0D5FB09FB3D
:1045000006762C4474620120BDE8F88F13449C4267
:104510001BD800FB0BBBBB444A46DBF804002C4411
:10452000284421F0C1FBB4EB0A0406D0DBF80400F8
:10453000224608EB090121F0B7FB182000FB0676A4
:10454000E0E7013B5B1BA342CED20020DCE700BFCB
:1045500018030020034B182202FB00339A6A586AA2
:10456000801A704718030020014B1868704700BF7D
:10457000B06A0020F0B5082289B00C46064620F04B
:10458000ACFBCB6A03930B6B04934B6B05938B6B68
:104590000693CB6B0793002708236A466946684653
:1045A000CDE90177009720F09AFA082305466A467C
:1045B0003146304620F093FA236B0393636B0493E8
:1045C000A36B0593E36B0544CDE906376A460823E0
:1045D0006946684620F083FA3146054408236A4656
:1045E000304620F07CFA236A0093636A0193A36A41
:1045F0000293A36B0693E36B0793054408236A4673
:104600003046CDE90477039720F069FA636A009396
:10461000A36AA26B0193E36A02930492636BE26B59
:104620000393CDE90523236A0793054408236A46CB
:10463000304620F054FAE36A0093236B0193636BD6
:104640000293236A0693A36A0793054408236A46E4
:104650003046CDE90477039720F075FB236B009378
:10466000636B0193A36B0293E36B0393636A0693FB
:10467000E36A07932D1A08236A463046CDE904778A
:1046800020F061FB636B0093A36B0193E36B0293D8
:10469000236A0393636A0493A36ACDE90537236B06
:1046A00007932D1A08236A46304620F04CFBA36B73
:1046B0000093E36BCDE90137636A0393A36A049324
:1046C000E36ACDE90537636B07932D1A08236A4621
:1046D000304620F038FB2D1A10D40D4C35B9082285
:1046E0003146204620F005FB01280FD00823224642
:1046F0003146304620F027FB2D1AEFE7044A082305
:104700003146304620F0EBF92D18F8D409B0F0BD51
:10471000249C0200F0B5264E07460C460FCE8DB005
:1047200001AD0FC50FCE0FC596E8070085E807005D
:104730003846002F38D0002C38D0381F214602468A
:1047400010344B780D781B0443EA0563CD782B4376
:104750008D78043143EA05238C4242F8043FF0D1BE
:10476000144C04218A07036916D1C3F30742A55CE0
:104770001A0EA25C42EA0562C3F30725DBB2655D4F
:10478000E35C42EA054242EA03220CAD21F0030356
:104790002B4453F82C3C534050F8042F0131534024
:1047A0002C290361DED101200DB0F0BD2046FBE7CE
:1047B000109A02001FAF02002DE9F043154689B0A0
:1047C0000646002858D0002959D0002A59D0102375
:1047D0000A466846194620F0BEF8294668462A4C23
:1047E00020F0C3FF05F11007A146A035E8466A4650
:1047F00010231178013B615C02F8011BF9D1684676
:1048000020F0F8FF694604A821F02DF801A905A8B9
:1048100021F029F802A906A821F025F803A907A884
:1048200021F021F8102319460DEB0302684620F011
:1048300092F839466846103720F097FFAF42D5D13D
:10484000102498F80030013C19F8033008F8013BB7
:10485000F7D1684620F0CEFF2946684620F085FF54
:10486000102319466A46304620F075F86846102233
:10487000214620F07DF8012009B0BDE8F08308460C
:10488000FAE71046F8E700BF1FAF0200044881684E
:10489000406A884203D003494FF080520A60704753
:1048A000801D002004ED00E00A4A0B499368096866
:1048B000C3F890100949C3F88C004B6843F080534B
:1048C0004B60002383F31188BFF36F8F9368D3F895
:1048D00090007047801D002040A5020000ED00E020
:1048E00013498A684FF030001044EFF3098C80E8D8
:1048F000F01F202080F31188BFF36F8F0D4F4FF012
:1049000000664A6A8A603E60D2F88C000023C2F8D2
:104910008C3080F3118804B5104600F085FCBDE8AA
:10492000044002F1300090E8F01F8CF309887047D2
:10493000801D002004ED00E01EF0040F0CBFEFF31B
:104940000880EFF30980816911F8021C0229FFD069
:1049500001B521F0CBF801BD43B2002B08DB0122E9
:1049600000F01F0002FA00F05B09024A42F823003F
:10497000704700BF00E100E043B2002B0DDB0122D5
:104980005B0900F01F0002FA00F02033034A42F8EE
:104990002300BFF34F8FBFF36F8F704700E100E03C
:1049A000054B420900F01F0053F82220012303FAAF
:1049B00000F01040704700BF00E100E070B54C1CF3
:1049C000072C05460E460ED9104A114911485B23A3
:1049D0001FF087FA1048314607221FF082FA0B4871
:1049E0005B211FF0C1FA6BB2002BACBF03F1604337
:1049F0000A4B4FEA4414B8BF05F00F05E4B2AABF52
:104A000003F561435C5583F8004370BD1FB002009D
:104A100055B00200E8A5020070B0020014ED00E0FD
:104A200008B572B6044B186A18B100221A6224F055
:104A3000BEFB62B608BD00BF801D00202DE9F74314
:104A4000DDF83490B9F10F0F054690461E4601F18E
:104A5000200725D11D4B9E4226D10E9B0093424636
:104A60004B4607EB08043946284624F04FFCA4F1D6
:104A70002002174B22F0070223F0010393610A9BE7
:104A800053600B9B93600C9BD3604FF08073D3619A
:104A9000002316602A65C5F88C3003B0BDE8F083AA
:104AA00009F110031E2BD8D90A4A0B490B482923B8
:104AB0001FF017FA49460A486FF00F030E221FF045
:104AC00010FA044829211FF04FFAC6E73105020009
:104AD000173F0200A5B00200D7B00200E8A502000F
:104AE00064B102000A4A0346906878B11633D0F8E0
:104AF000800002D110F1160F04D981422CBF002191
:104B0000012100E00021002908BF0020704700BFFC
:104B1000801D0020F8B5154606460C461F46203578
:104B200000F066FB0A4B2C4430469E6024F00704DC
:104B300000F07AFB384684F30988002163B681F3DC
:104B40001188BFF36F8F002200231FF0E4F900BF2C
:104B5000801D0020014910220A60704710ED00E01E
:104B600072B6404080F31188BFF36F8FBFF34F8F51
:104B700030BF62B6BFF36F8F704700BFEFF308809E
:104B8000EFF30981724601B500F0FAF901BD00BFEB
:104B900073B506460C4601B3134B144D1448ED1A79
:104BA000ED08AD0145F00105ADF80050D1E9012354
:104BB00009681FF041FAADF80050D4E90423E16818
:104BC0000C481FF039FAE1690B482A461FF007FA32
:104BD000A1690A482A461FF002FA2146304602B06F
:104BE000BDE870401BF034BC30980200C899020048
:104BF00095B10200C4B10200F3B1020002B202009A
:104C000030BFFFF7FDBF00BF0E4A08B50E4B22F0C4
:104C10007F029A60BFF34F8FBFF36F8FD3F8882066
:104C200022F47002C3F88820EFF3148323F0040306
:104C300083F314881BF096FC1BF09EFC00F08EFAA8
:104C40001BF0D8FC0000000000ED00E001B572B6DA
:104C50000B4A106A00281EBF0021116224F0A7FA37
:104C600062B6EFF30580A0F110004FEAC0000549DD
:104C7000014409C99847BDE80140034908470000BD
:104C8000801D0020809502008D48000021F0E0F892
:104C9000202080F3118808484FF48061401880F389
:104CA0000988EFF314800221084380F31488BFF3CE
:104CB0006F8FFFF7A9FF0000803F00202DE9F0472C
:104CC0003C4B3D4C3D4DE41AE408A40144F001097D
:104CD000074688463A48494616461FF073F9AA6ABD
:104CE000D30603D5374849461FF06CF9AB6A1D0758
:104CF00004D5354844F001011FF064F92F4DAB6A2B
:104D0000980743D544F0010A514630481FF05AF93C
:104D1000D5F83490AB6A19060BD52D485246494652
:104D20001FF05DF9B8F1000F03D0AB6A23F08003E8
:104D3000AB62224DAA6AD20704D5264844F001018D
:104D40001FF040F9AB6A9B0604D5234844F00101EB
:104D50001FF038F9194B9C6A14F010040CD05C68F1
:104D600014F4006408D039464846FFF7BBFE0446F9
:104D700078B180F309880224104A936A43F0FF0354
:104D80009362002333702046BDE8F0876FF0150969
:104D9000CFE7124A1249134840F22F131FF0A1F82F
:104DA00011481FF09EF80D4840F22F111FF0DCF85B
:104DB000E2E700BF30980200C899020000ED00E071
:104DC00030B2020046B2020079B202008CB2020098
:104DD000A4B20200BAB20200D9B2020008B30200C3
:104DE000C9E30200E8A5020042B3020070B5234BFC
:104DF000234C244D2448E41AE408A40144F001069D
:104E000031461FF0DFF8AA6A930103D51F483146E7
:104E10001FF0D8F8AB6ADD0104D51D4844F001014C
:104E20001FF0D0F8174DAA6A100304D5194844F0B2
:104E300001011FF0C7F8AB6A590304D5164844F0C6
:104E400001011FF0BFF80F4DAA6A920304D5134861
:104E500044F001011FF0B6F8AB6ADB0304D510483B
:104E600044F001011FF0AEF8064A936A6FEA03436B
:104E70006FEA13439362002070BD00BF30980200B8
:104E8000C899020000ED00E065B302007DB30200A6
:104E900090B30200AAB30200C8B30200EDB302004F
:104EA00007B402002DE9F0412A4B2B4C2B4DE41A9C
:104EB000E408A40144F0010807460E46284841468C
:104EC0001FF080F8AA6AD10403D5264841461FF096
:104ED00079F8AB6A1A0504D5234844F001011FF0A4
:104EE00071F81E4DAB6A9B0512D544F001081F48AE
:104EF00041461FF067F8A96BAB6A180408D51C4837
:104F000042461FF06CF81FB1AB6A23F40043AB625A
:104F1000124DAB6A590504D5164844F001011FF043
:104F200051F8AB6ADA050DD5134844F001011FF0C2
:104F300049F80A4A936A002043F47F439362307031
:104F4000BDE8F081AB6A9B04F3D50C4844F0010145
:104F5000EDE700BF30980200C899020000ED00E0C4
:104F600032B4020048B4020079B2020059B402001F
:104F700072B4020087B40200A2B40200D9B20200E7
:104F80002DE9F0415F4B5D688AB00E46C5F3080419
:104F9000002787F31188BFF36F8F02F07F43B3F1CF
:104FA0007F4F0DD102F00C03082B1AD15649574BF5
:104FB0005748C91AC908890141F001011FF002F8D8
:104FC000544A554955484FF46C731EF08AFF5448B3
:104FD0001EF087FF4F484FF46C711EF0C5FF00268E
:104FE00005E012075CBF06460127002EE8D000232B
:104FF0008DF80730E31E092B6BD8DFE803F0055965
:105000005D3D6A6A6A6A6A61404B3F4D4548ED1AE8
:10501000ED08AD0145F0010529461EF0D3FF394BDF
:10502000DC6A4FF0000814F002048DF8078005D008
:105030003D4829461EF0C6FF002420E0DB6A5B00E5
:105040001DD53A4829461EF0BDFF394B1B7833B1B8
:105050000DF1070201213046FFF730FE0EE0354B1F
:105060001B782BB10DF107010120FFF71BFF05E0B5
:10507000314B1B889BB213B1FFF7B8FE04469DF875
:10508000073093B92022314602A820F00DFE099B7B
:105090009FB3C3F3080222B96FEA53236FEA432395
:1050A000099302A92046FFF773FD0AB0BDE8F0811D
:1050B0000DF107020021CEE70DF107010020D4E732
:1050C0001149124B1D48C91AC908890141F0010153
:1050D000B0E70E4A0C4B1A481A499B1ADB0815F424
:1050E000F87F4FEA831318BF014643F001031648C7
:1050F000A4F110021EF087FF9EE723F4FF7323F054
:105100000103CDE700ED00E0C899020030980200ED
:10511000BAB4020008B30200E5B40200E8A5020038
:10512000F8B4020036B502004DB502006EB50200BB
:1051300028ED00E029ED00E02AED00E08DB5020049
:10514000D8B50200C3B50200F1B50200024A5369A6
:1051500043F010035361704700ED00E00448002362
:105160002021C2180133302B82F80013F9D1704787
:1051700000E100E038B504464FF02003EFF311855D
:1051800083F31188BFF36F8F037BDB070CD51249C4
:10519000124A134823231EF0A4FE12481EF0A1FE5B
:1051A0000E4823211EF0E0FE20461CF0A3FD0E4B0E
:1051B0009B68A3420BD10D4B5A68C2F3080212B987
:1051C0002846FFF771FB5A6842F080525A60284621
:1051D000BDE8384024F050B845B6020004B60200DD
:1051E000E8A5020073B60200801D002000ED00E07B
:1051F0001FB5084B0193084B0293084B039301AB77
:105200000093074A074B0121684600F0F3F805B008
:105210005DF804FB000000200000000000000B0609
:1052200000000020000004201FB5D0F88030203B93
:105230000193064B2022CDE90223012101AB6846F0
:10524000009300F0FDF805B05DF804FB00000B15BD
:10525000DFF8BCC0F8B506460F4610460021B9423B
:105260001BDA56F821E0DEF80440002C46D0ABB142
:10527000651E2C4205D11F2C03D9DEF800201542F3
:105280000CD01F4A1F4B2048D21AD208920142F07C
:1052900001021EF0A4FE6FF01500F8BD202CC5B26F
:1052A000DEF80020DEF8080016D9B4F1004F15D85A
:1052B000013CB4FA84F4C4F11F046400072D44EAED
:1052C00000040DD90E4A0F4B1048D21AD208920191
:1052D00042F001022946DCE70824EFE73E24EDE72F
:1052E00022F01F022A4342F0100244F00104CCF8DD
:1052F0000850681CCCF80C20CCF810400131AEE707
:10530000B89902003098020092B60200B5B60200C9
:1053100090ED00E0034B05225A60BFF34F8FBFF3BF
:105320006F8F704790ED00E0BFF35F8F014B00225D
:105330005A60704790ED00E0254910B50C68082CC4
:1053400013D940F22913234A234924481EF0C9FDEA
:105350002348082221461EF0C4FD1E4840F22911B0
:105360001EF002FE4FF0FF3010BDFFF7DDFF486872
:105370001C490022944200F10C0019D11A4B1C70F8
:10538000FFF7C8FF0B68C3F30723082B0ED017499C
:10539000104A124840F247131EF0A3FD14481EF0B5
:1053A000A0FD0C4840F247111EF0DEFD0020DBE7B7
:1053B0008A6050F80C3C23F01F03134343F01003A2
:1053C000CB6050F8043C43F001030B610132D1E79C
:1053D000D09C0200DBB60200C9E30200E8A502008F
:1053E0001BB7020090ED00E0562300204FB70200EB
:1053F0009FB7020038B50D4D01232A780C46FFF700
:1054000027FF287016300FD1F223094A09490A48AC
:105410001EF067FD214609481EF063FDBDE83840D7
:105420000348F2211EF0A0BD38BD00BF5623002066
:10543000DBB60200C9E30200E8A50200C0B7020023
:1054400010B5124A002312780C46FFF701FF10F145
:10545000160F08D00E4B0022072800DD10BD986003
:105460001A610130F8E70B4A0B490C4840F211135E
:105470001EF037FD21460A481EF033FDBDE81040FE
:10548000044840F211111EF06FBD00BF56230020EA
:1054900090ED00E0DBB60200C9E30200E8A50200DF
:1054A000ECB702002DE9F04FA1B01E460023039097
:1054B00089460293134613F8010B069358B1252829
:1054C00000F081804946039B9847013040F04A84B0
:1054D0004FF0FF330293029821B0BDE8F08F2B2DDF
:1054E00065D05CD8202D65D0232D66D0002DF2D05C
:1054F000CDF81880DDF81880A44818F8015B29461B
:1055000020F092FB0028EAD12A2D63D156F8043B03
:105510000793002BBFBF5B42079301230D93069BAC
:1055200098F8005003F102082E2D78D198F8003039
:105530002A2B71D156F8044B08F1010818F8015BC9
:10554000934829462F4620F06FFB00286AD0434637
:10555000682F13F8015B069307D1682D05D108F178
:10556000020398F8015006934827782D08D8572D44
:105570005CD8252D00F0F28300F2A280002DAAD085
:10558000039B4946252098470130A1D0039B4946FB
:105590002846984701309BD0029B0233E4E32D2D2F
:1055A0000ED0302D089B08BF01230893A0E70123EC
:1055B00009939DE701230C939AE74FF0010A97E7BF
:1055C00001230D9394E7002308930C9309930D9303
:1055D0009A468FE7A5F13003092B0790A4D80A2239
:1055E000DDF8188018F8015BA5F13003092B9BD872
:1055F000079B02FB0355A5F13003CDE90683EFE7D6
:1056000001FB0434303C9046424612F8013BA3F1C2
:1056100030000928F4D991E700240A21F4E74FF07B
:10562000FF348DE7CDF8188007469EE7A5F15803B3
:10563000202BA5D801A252F823F000BFC15C0000C6
:105640008155000081550000815500008155000002
:1056500081550000815500008155000081550000F2
:105660008155000081550000955700006B580000DF
:10567000CD560000CD560000CD56000081550000EB
:105680006B580000815500008155000081550000D5
:10569000815500004D5C0000C15C0000775C00009B
:1056A0008155000081550000995C00008155000083
:1056B000C15C00008155000081550000C15C000004
:1056C000A5F14503DBB2022B3FF65AAF073626F0B1
:1056D00007031946F1E80223D80240EA5250D602E5
:1056E00020F0004004960590DDE90467002A01914E
:1056F000C3F30A5173F10003CDE9146780F2E5802A
:105700002D238DF864300DF1650740F2FF73994247
:1057100040F0F680DDE904120A43A5F1410507F1E6
:10572000030340F0E280192D00F2D98049223A703B
:105730004E227A704622002419AEBA70FC709B1B70
:10574000A246A346099A002A40F07D820C9A002ABC
:1057500040F079829DF86480A8F12D02D2F1000812
:1057600048EB02080BEB0A0633441E1920AB4344F6
:1057700013F81C3C303B092B00F2FE82089B002BE7
:1057800000F0FD82079B19AF9B1B14E019B80200C3
:105790001FB8020032464FF0000852F8043B019255
:1057A0008DF864300126444619AF04EB0803002449
:1057B0009B1BA246A34623EAE3739A190892079A11
:1057C0009919551A0D9A12B9002D00F3ED8207EBC5
:1057D0000802BA4240F0EA82013B80F0F582A6EB73
:1057E0000806BBF1000F10D0387807EB0608A0F1CF
:1057F0003003092BA8EB070640F2F182D846B8F136
:10580000010880F0F582A6EB0B06BAF1000F16D066
:1058100007EB060817F801BB039B49465846984713
:1058200001303FF455AEBBF12E0FA8EB0706F1D1C6
:10583000D046B8F1000F00F3E482A6EB0A0694B15B
:10584000387807EB0608A0F13003092BA8EB070610
:1058500040F2E2822E2800F0DF82A046B8F1000F6D
:1058600000F3E382361B3E44F2E23568331D002D1F
:1058700001931CDA2D238DF8643069420DF1650621
:1058800030460A2220F05EFA099B064419A8361A0F
:10589000002B40F06C820C9B002B40F068824FEA9A
:1058A000D578002C80DA0024A246A34666E7099B3F
:1058B00023B12B238DF864302946DFE70C9B0BB115
:1058C0002023F7E7294619AEDAE7099B0BB12B2312
:1058D00017E70C9B0BB1202313E719AF15E76922DB
:1058E0003A706E227A70662225E7192D99BF4E22F2
:1058F00041216E22612194BF3A703A7079701AE7A3
:10590000049B05980B430E93CB1703430F93DDE9DC
:105910000E23462D08BF6625134300F0078100299A
:1059200000F09F80159B43F00043A1F2FE381593D1
:10593000002618F1020FC0F2A880B8F1000F00F3A2
:10594000D48014A808F1010820F020FAB8F1040F5F
:10595000F7D1002C05F0DF03B8BF0624472B40F039
:10596000EE80F11C02DBB44280F2E380023DEDB236
:10597000002C00F0EA80013CBAF1000F40F0E58015
:10598000002CD4BF4FF000084FF00108662D40F006
:10599000DE8014EB060B4FF0660500F1DB80BBF1F7
:1059A000100FA8BF4FF0100B1023139300224FF0DD
:1059B0000063CDE91623BBF1010B80F0CE80149B70
:1059C000169A17999B18159A41EB0202CDE91432E9
:1059D00002F07043109300231193DDE91023134369
:1059E00006D014A820F0E4F914A820F0CFF901366D
:1059F000662D40F0CF80002E40F3B680139B002B25
:105A000007DD13A914A820F0FCF9013E07F8010BEB
:105A1000F4D1B3463B460026BAF1000F01D1002C69
:105A200015DD2E2203F8012B002E00F0AE80002C95
:105A300040F3AD80C6F1000AA245A8BFA246A4EB80
:105A40000A04002C03DD139A002A00F39480B8F1B5
:105A5000000F40F0B480002219AE1A709B1B71E653
:105A60000139049BDB180493059B5B410593DDE939
:105A70000423002A73F10003F2DADDE90423CDE9FF
:105A800014234FE714A820F081F9DDE9142C00233A
:105A9000CDF828C00B93DDE90A01002908BFB0F159
:105AA000333F08F10108EDD20520A2FB002300FBE3
:105AB0000C33CDE91423013E4FF0000E00214FF0CE
:105AC000000C6FF0004B8C4508BF9B4506D2BEF121
:105AD000000F3FF42EAFCDE914232AE792185B4163
