:1000000080440020094A0000DD4E0200F94800004B
:10001000F9480000F9480000F9480000F9480000DC
:10002000F9480000F9480000F9480000B546000012
:10003000F9480000F94800005D460000313E00002C
:10004000C9490000AD780200C9490000C949000053
:10005000C9490000C9490000C9490000C949000058
:10006000C9490000C9490000C9490000C949000048
:10007000C9490000C9490000C9490000C949000038
:10008000C9490000C9490000C9490000C949000028
:10009000C9490000C9490000C9490000C949000018
:1000A000C9490000C9490000C9490000C949000008
:1000B000C9490000C9490000C9490000C9490000F8
:1000C000C9490000C9490000C9490000C9490000E8
:0C00D000C9490000C9490000C9490000EE
:0400DC00FFFFFFFF24
:1000E0007BB972B90029BEBF00204FF0004106E085
:1000F00008BF00281CBF6FF000414FF0FF3000F038
:10010000CDB9ADF1080C6DE904CE002909DB002B57
:100110001ADB00F061F8DDF804E0DDE9022304B049
:100120007047404261EB4101002B1BDB00F054F8AB
:10013000DDF804E0DDE9022304B0404261EB410157
:10014000524263EB43037047524263EB430300F0B8
:1001500043F8DDF804E0DDE9022304B0404261EB3E
:1001600041017047524263EB430300F035F8DDF87C
:1001700004E0DDE9022304B0524263EB430370471D
:1001800053B94AB9002908BF00281CBF4FF0FF31FE
:100190004FF0FF3000F082B9ADF1080C6DE904CEEC
:1001A00000F01AF8DDF804E0DDE9022304B070473E
:1001B000430803F05533C01A830803F0333300F0CB
:1001C0003330184400EB101000F00F3000EB00202B
:1001D00000EB0040000E70472DE9F047089D0E46E9
:1001E00004468C46002B40F081808A42174645D950
:1001F000B2FA82F24AB1C2F1200106FA02F320FA01
:1002000001F1974041EA030C94404FEA174E230C4A
:10021000BCFBFEF6B9B20EFB16CC43EA0C4306FB60
:1002200001F0984209D9FB1806F1FF3C80F01581D6
:10023000984240F21281023E3B441B1AA4B2B3FB27
:10024000FEF00EFB103344EA034400FB01F1A1422F
:1002500009D93C1900F1FF3380F00181A14240F23D
:10026000FE8002383C44641A40EA064000211DB179
:10027000D4400023C5E90043BDE8F08702B9FFDEA2
:10028000B2FA82F2002A4FD1CB1B4FEA174E1FFA67
:1002900087F80121B3FBFEFC260C0EFB1C3346EA5B
:1002A000034608FB0CF3B34207D9BE190CF1FF302B
:1002B00002D2B34200F2EB808446F61AA3B2B6FB38
:1002C000FEF00EFB106643EA064408FB00F8A0456A
:1002D00007D93C1900F1FF3302D2A04500F2D280C9
:1002E0001846A4EB080440EA0C40C0E78B4208D94A
:1002F000002D00F0AF800021C5E900060846BDE8EA
:10030000F087B3FA83F1002949D1B34202D3824284
:1003100000F2BB80841A66EB030301209C46002D8B
:10032000AAD0C5E9004CA7E7C2F120039740D84006
:100330009140DE404FEA174E08434FEA104CB6FB9F
:10034000FEF11FFA87F80EFB11664CEA064601FB28
:1003500008F3B34204FA02F409D9BE1901F1FF3CD3
:1003600080F08E80B34240F28B8002393E44F31A13
:1003700086B2B3FBFEF00EFB103346EA034600FBE9
:1003800008F3B34207D9BE1900F1FF3C74D2B3425F
:1003900072D902383E44F31A40EA01417AE7C1F1CA
:1003A000200703FA01F422FA07F31C4320FA07F9A5
:1003B00006FA01F34FEA144CFE4049EA03094FEAFA
:1003C0001943B6FBFCFE1FFA84F80CFB1E6643EAD9
:1003D00006460EFB08FAB24502FA01F200FA01F3F2
:1003E00008D9A6190EF1FF3048D2B24546D9AEF170
:1003F000020E2644A6EB0A061FFA89F9B6FBFCF0AA
:100400000CFB106649EA064600FB08F8B04507D920
:10041000A61900F1FF3C2DD2B0452BD90238264455
:1004200040EA0E40A6EB0806A0FB02894E45C446F2
:10043000CE4618D315D075B3B3EB0C0266EB0E069F
:1004400006FA07F722FA01F3CE401F43C5E900760A
:10045000002111E7294628460EE76646EDE61846D4
:1004600001E74345E7D2B8EB020C69EB040401381D
:10047000A646E0E76046D3E760468CE78646B9E7E4
:10048000614674E702383C442BE7084647E7ACF185
:10049000020C3E4411E72946EEE600BF704700BF5C
:1004A0002DE9F04F8FB002230D9330B919F0DEFF24
:1004B000064630460FB0BDE8F08FCF4F97F8CC60BE
:1004C00016F001063D4601D00C26F2E797F82B8086
:1004D00097F87BA027232C2213FB082807EB0802A0
:1004E00017F808000A923146C0F3801003FB0A7A1D
:1004F00017F062FE0A9B03F1020901460446062238
:100500000AF17C0A484624F0C3FD062221460AF17E
:10051000020024F0BDFD17F808305A0600F1938060
:1005200017F8083013F00E0F00F0968095F8283079
:100530000121C3F342030DF133008DF8333026F06F
:10054000BEFE002800F04C8117F808400A9B04F01A
:100550000F04022C5A789AF8013000F1FF3140F074
:100560000F811032D200504300F5AA70642303FBC0
:10057000010095F82030A149ED61002464F30003E7
:1005800085F8203031232B60C5E9054498A3D3E9D1
:1005900000236C60AC60A0FB0101FFF7F1FDE86097
:1005A000B5F8D8A026F046FF8146BAF1000F06D173
:1005B00017F8084004F00F04631E5C425C4195F894
:1005C0002870DFF848828E4AEB6864F3000785F8EC
:1005D00028700DAC17F00107CDE90784CDE905259A
:1005E000049300F0E9800020CDE900030321CDE968
:1005F00002004B46022217F017FD214619F0F4F9CC
:10060000002840F0ED8002220D92CDE907847D4A5A
:100610000695CDE902004AF2D833CDE904020093F1
:1006200001904B460122032117F0FEFC214619F0F0
:10063000DBF9002840F0D48095F8CC3043F001037A
:1006400085F8CC3035E70621484626F001FE002823
:100650007FF466AF12262CE76B6A002B7FF434AF71
:1006600019F01AF9814630B119F022F9834620B900
:10067000484619F017F907261BE71AF085F90446D2
:1006800018B9584619F01AF9F2E74FF6FF72828549
:10069000C26E00F11C030B9312B900F16402C26632
:1006A00004F1600204F15C01E06E26F0DCFD94F8D8
:1006B0007210C4F8C89021F0070184F8721094F801
:1006C0003D1001F03F0161F07F0184F83D1094F886
:1006D0004010002262F3000184F8401094F880106A
:1006E000E26621F0030184F8801094F8BE10A4F8AB
:1006F000702021F0030184F8BE1094F8EE1084F805
:100700003F20062062F30411C4E91322628662636B
:100710006265A4F87400A4F87820A4F87C20A4F8FA
:100720008C2084F88E20C4F89C20A4F8A020A4F883
:10073000B420C4F8B800A4F8BC2084F8C720A4F8FA
:10074000EC2084F8EE10C5E9349B0B9B6B6294F8A7
:100750002030C4F8142162F30003C4E94822C4E93C
:100760004622C4E90522E46184F820301BF074FDC0
:1007700000283FF4DBAE204819F090FC032698E6F1
:10078000012C15D0DB00803364B902F1100003F5B1
:100790002773C200983303EBC00302F59A7001FB84
:1007A0000030E6E6062CF0D010204FF4AA73F0E7F4
:1007B00016204FF42D73ECE713489123AAFB000198
:1007C00003FB0A110AA3D3E90023CDE90277FFF75F
:1007D000D7FC4B46CDE9007002220321384623E7BF
:1007E0006B6A002B3FF470AE034819F057FC6BE6C0
:1007F0008D49FD1A07000000BC14002000CA9A3B76
:100800009D9F0100F5A10100002AE784DD99010008
:100810002DE9F04B8CB0022304460B9390F8243062
:1008200090F83800364EC0F3400003F0F90360F34F
:10083000861384F8243004F1250117F0BDFC94F8E8
:100840002030678EE461002565F30003A7FB0601F5
:1008500084F82030912303FB0711C4E9055526A332
:10086000D3E90023FFF78CFC31232360636B6560C1
:100870000933A0F13102934232BFE360E260656365
:10088000A560074626F0D6FD1E4BB4F832B0CDE980
:1008900006431D4B0593B146E368049380469123BC
:1008A000ABFB090100250BAE03FB0B1112A3D3E92F
:1008B000002308960395FFF763FC104619464FF492
:1008C0007A720023FFF75CFC0321CDE901700095EB
:1008D00043460422284617F0A7FB314619F084F856
:1008E00040B994F8383043F0010384F838300CB044
:1008F000BDE8F08B0C20FAE78D49FD1A07000000D7
:10090000002AE784DD9901008DA5010000000000A8
:1009100070B5054600201E4619F0FAFE044610B3D5
:1009200090F8383066F3420380F838309DF8103084
:100930006186DB0003F0180343EAC51094F8243005
:1009400003F06703184384F824000B489123A2FBAB
:10095000000103FB021106A3D3E90023FFF710FCFB
:100960006063002070BD0C20FCE700BFAFF3008087
:100970008D49FD1A07000000002AE78400000000EE
:100980002DE9F04F9046828D4FF6FF739A428DB05D
:1009900004460E460CD1CD4ACD49CE484FF444739F
:1009A00022F093FC404080F311884FF0030002DFF7
:1009B00094F88D2094F88C3093420BD194F8A120B8
:1009C00094F8A010914225D00122023B84F88E2099
:1009D00084F88D3094F88C1094F88D30CB1A03F095
:1009E0000303022B40F0798294F88E30012B00F043
:1009F0002282022B00F03884B44AB749B54840F24D
:100A0000963322F062FC404080F311884FF00300DF
:100A100002DF62E294F8B53094F8B4108B4267D0EC
:100A20005B1AD807D6D594F8801011F001072ED0A4
:100A300018F072FF05460028CCD094F8B43084F842
:100A4000B530A38DC3800223037190F8203043F0AA
:100A5000030380F82030092380F8213080F8233008
:100A600008220021243024F03EFBD4F8B83085F869
:100A70002430C3F307221B0C85F8252085F8263087
:100A80002946086818F020FF18F028FFA2E79348CD
:100A900026F099FB054600289CD094F8B530013B20
:100AA00084F8B5300623C4F8B830037943F0030363
:100AB00003710923437194F93D30002BACBF082327
:100AC0000E230822C3713946104424F00CFBD4F8DD
:100AD000B8302B72C3F307221B0C6A72AB72294623
:100AE000204626F0EDFDB4F87A30A4F87C3071E7AA
:100AF00094F8BD3094F8BC108B4264D05B1AD907CF
:100B00007FF568AF94F8BE30DA0725D4734826F035
:100B10005AFB014600283FF45DAF94F8BD30013B1D
:100B200084F8BD3094F8BE3043F0010384F8BE3041
:100B3000037943F003030371062343710C23C3714C
:100B40000A2303726FF00E034372052383724FF082
:100B5000FF33C3720373C3E79F0726D518F0DCFE8B
:100B6000014600283FF436AF94F8BC3084F8BD301D
:100B7000A38DC3800223037190F8203043F0030358
:100B800080F82030062380F821300C2380F82330B1
:100B900094F8BF3080F82430B4F8C030A0F8253085
:100BA000B4F8C230A0F827306BE740F62A33474A42
:100BB0004949484822F089FB404080F311884FF0B2
:100BC000030002DF06E794F8ED1094F8EC30994248
:100BD0003FF400AF424D2B6813B19C427FF4FAAE54
:100BE00094F8EE3003F00703052B00F2218101A1F8
:100BF00051F823F00D0C0000890C0000DF0D0000FF
:100C0000D5090000D5090000D50900003348E78E5A
:100C1000B4F8329026F0D7FA014600283FF4DAAE55
:100C200094F8EE30042262F3020384F8EE30037984
:100C300043F003030371182343710F23C371B4F806
:100C4000F0300381B4F8F2304381B4F8F43083819A
:100C5000B4F8F630C3814F4400230374C3740375A2
:100C600047444FF0FF33A0F8117043758375C37587
:100C7000037643768376C37603774377837720467C
:100C800026F01EFD2C602EE794F8EF7057B3134842
:100C900026F099FA014600283FF49CAE037943F010
:100CA000030303711123C371032343710F230372E1
:100CB00094F8EF304372204626F002FD94F8EC30B1
:100CC00084F8ED3000232B6084E600BF6CF0020056
:100CD00099F10200E6970200C6D20200A817002090
:100CE0002C17002094F93D30002B35DB94F8EE30C2
:100CF000C4F8AC70052161F3020394F8F81084F88D
:100D0000EE30012384F8B03019B3B4F8F030B3FBFF
:100D1000F1F3013313FB01F39BB2A4F8A430B4F850
:100D2000F430A4F8A630B4F8F630A4F8A83094F85B
:100D3000EE3094F8A210C3F3C0039B0043F002030B
:100D400021F007010B43013A84F8A23084F8A12076
:100D500040E6B4F8F230E0E7654826F034FA0146A0
:100D600000283FF437AE037943F0030303711823DF
:100D700043711023C371B4F8F0300381B4F8F2303A
:100D80004381B4F8F4308381B4F8F630C38194F829
:100D9000F8300374B4F8FA30A0F81130B4F8FC302D
:100DA000A0F81330B4F8FE30A0F81530B4F80031D4
:100DB000A0F81730B4F80231A0F81930B4F80431B3
:100DC000A0F81B30B4F80631A0F81D30204626F0FC
:100DD00077FC94F8EC3084F8ED302F60FAE518F0E9
:100DE0009BFD014600283FF4F5AD94F8EE30032258
:100DF00062F3020384F8EE30A38DC38002230371F3
:100E000090F82030134380F82030182380F82130E8
:100E10000F2380F82330B4F8F0308384B4F8F23034
:100E2000C384B4F8F4300385B4F8F630438528E67B
:100E300040F63743BBE62F4B1A6802B91C60628E3E
:100E4000E78E174494F8A220474412F00300BFB283
:100E500052D0012018F048FD064600283DD0244815
:100E600026F0B1F90546C0B318F056FD3368D4F842
:100E70009C205A6094F8A230C4F89C606FF3010380
:100E800084F8A230238E1F442B790637BFB243F07B
:100E90000303A4F890702B710C236B710023EB718A
:100EA00094F8B0302B7240F2E242D4F8AC30B3FB8D
:100EB000F2F3A5F80930B4F8A430A5F80B30B4F873
:100EC000A630A5F80D30B4F8A830A5F80F30A5F875
:100ED00011702946204626F0F3FB94F8C52094F8BB
:100EE000C4309A4240F0108200200DB0BDE8F08F6F
:100EF000A81700202C170020B4F89090A7EB090247
:100F000015041FFA82FBE8D494F8A02084F8A120ED
:100F100084F88D1094F8ED2094F8EC108A4209D0F2
:100F200094F8EE2002F00702052A04BF84F8ED10C1
:100F3000A4F87C001A68D4F89C50944204BF0022A4
:100F40001A600DB12B6863B9BB4ABC49BC4840F676
:100F5000C30322F0BAF9404080F311884FF0030038
:100F600002DF2868B4F8A4204368C4F89C30E38DFD
:100F7000B4F8A6C0B4F8A8109A4213D1238E6345E2
:100F800010D140F2E24303FB02FE42F2107303FB76
:100F900001E3013BB3FBFEF3B4F876E09BB29E4560
:100FA00000F02481A38DEB800A232B71002385F8A8
:100FB00020306A84A5F824C0E984294618F084FC0E
:100FC00018F08CFC2368002B09DAD4E9010123F026
:100FD000004381422CBF761836182360F61AE38D41
:100FE000B4F8A450DFF87CA213FB0BF39BB2B3FB65
:100FF000F5F18AB20A9215FB01F292B2934240F2E5
:10100000E24080F0F680D31A5843A0FB0A0188A37F
:10101000D3E90023FFF7B4F820F07F4006440A9B91
:10102000628EA9EB07071F4494F93D309044474472
:10103000002B40F2E248678608FB05F580F2E68067
:10104000E26C636C03FB1B23E36426F07AFD074626
:1010500094F88000C0F382001CF032F894F8B020BD
:10106000784B08FB02F2074462650A9800226F433E
:10107000C4F8882007F57427E26C07F23F27B7FB16
:10108000F3F76B087843963B0244A3649A4294BFFB
:10109000E264E364676466A3D3E90023A0FB0A016A
:1010A000FFF76EF8361AD4F8AC00B0FBF8F008FB86
:1010B00000F05FA3D3E90023A0FB0A01FFF760F86B
:1010C000A5EB070920F07F48B4F8A430E385B4F815
:1010D000A6302386B4F8A83042F2107202FB035304
:1010E000013BB3FBF5F3A4F87630574B2B44B3FB2D
:1010F000F5F594F8A230A4F87A505A0744BF0023BB
:10110000A4F87830022101201CF0BEFE002202214A
:101110000746012016F0C6F9204619F041FC451D8E
:10112000EDB24A4B00942A460121002017F00CF83A
:1011300030F002030CD0404A4549414840F667135D
:1011400022F0C3F8404080F311884FF0030002DF23
:10115000A9FB0A23CDE90A23DDE90A0134A3D3E977
:101160000023FFF70DF83B4B0894CDE906433A4BBB
:101170000593E3680493394B0A9920F07F44A4FB5C
:1011800003ABB1EB0A004FF007030B9903FB04BB61
:1011900061EB0B014FF000094FF47A720023CDF898
:1011A0000C90FEF7EDFF3346CDE90140CDF800800D
:1011B0002A460121484616F037FF30F002030CD0D2
:1011C0001D4A23491E4840F6811322F07EF8404014
:1011D00080F311884FF0030002DF27B101220221C2
:1011E000104616F05FF96FF047007EE603232B717F
:1011F000E3E605FB113189B248430DA3D3E900238F
:10120000A0FB0A01FEF7BCFF361A08E70A4A144998
:101210000B4840F6381322F058F8404080F311880C
:101220004FF0030002DF4FF00008A9464CE700BF73
:101230008D49FD1A070000006CF00200B4F10200B5
:10124000E697020040420F00FF59620249A80100E0
:1012500022F10200F1A7010091BC01008D49FD1AA5
:10126000C6D2020000CA9A3B638EE28E1A4494F8FA
:1012700090309044DB071FFA88F825D5354825F0D3
:10128000A2FF054600283FF428AE94F890306FF393
:10129000000384F89030238E9844037908F10608FF
:1012A00043F00303A4F896800371082343710123DC
:1012B000C371052204F19101083023F0E9FEB4F86E
:1012C0009630A5F80D3004E6B4F89630A8EB030884
:1012D00018F4004F7FF401AE04F1380584F88D1046
:1012E000052204F19101284623F0D2FE052128466B
:1012F00025F0E5FF94F83D3060F3050384F83D30B8
:10130000012384F82831E8E5124825F05CFF014606
:1013100080B194F8C43084F8C530037943F00303F6
:10132000037102234371C37194F8C63003722046DF
:1013300026F0C6F9B4F87C0000287FF4D5ADB4F8E7
:101340007630012B02D9A4F87C30CDE50133A4F826
:101350007C30CAE5A81700202DE9F04F91B01C465B
:101360000B90136820460027894650F80C5B9F605D
:10137000904604F1080B03223231D3F800A004F1A7
:101380001C0623F085FE09F12E010422584623F0A5
:101390007FFE052209F13E01304623F079FE05214A
:1013A000304625F08CFF94F8213060F3050384F873
:1013B000213099F84330C3F3040384F82230B9F89C
:1013C0003860668299F83B2099F83A3043EA022364
:1013D000A382B9F83630ADF8303040F2E2435E43D4
:1013E00099F8433095F880205B0963F3840285F80F
:1013F000802026F0A6FB0D9095F88000C0F38200B7
:101400001BF05EFE0D9B1844704300F574207E4B6C
:1014100000F23F20B0FBF3F07308963BE36299F8CB
:101420003530A06240F2E2425343E363B9F83C3006
:101430000D9342F2107202FB0362013AB2FBF6F224
:10144000A5F87620714A5946324405F18400B2FB72
:10145000F6F2A5F87A20042223F01AFE99F820B0BB
:1014600009F1220106220EA823F012FECBF3801B05
:101470004FF48072A9F8202089F822B00EA9062224
:1014800009F1230023F004FE628A0D9BA9F82A20AB
:10149000A28AA9F82E3095F88030A9F82C20C3F341
:1014A000820389F83030284619F07AFA49462082BA
:1014B000A9F806000B98DFF8749118F005FA18F0F7
:1014C0000DFAD8F810B06F6031230BF252402B6048
:1014D000AF604BA3D3E90023A0FB0901FEF750FE48
:1014E000A36ABDF83020F61AD8F80C301146A3F5DF
:1014F000AE7340F2E24220F07F40A3EB0B0302FB0D
:10150000012B5B443A460221E86001200B9315F061
:10151000C9FF504618F088FF821C3D4BCDF800A053
:10152000D2B20121384616F00FFE51461AF094FB54
:101530009AF82830DB0706D5012200973B46114672
:10154000384616F001FE284619F02AFAA6FB09676C
:101550002BA3D3E90023044639463046FEF710FE9C
:10156000D8F80830A3F1310840F21D130893294B35
:10157000CDE90653284B0593EB680493274B20F0E5
:101580007F45A5FB03BC072303FB05CCB6EB0B0093
:1015900067EB0C014FF0000A4FF47A720023CDF88C
:1015A0000CA0FEF7EDFD0B9915A3D3E90023CDE9BF
:1015B0000150A1FB0901FEF7E3FD053420F07F4057
:1015C000E4B20090434622460121504616F02CFD1D
:1015D00030F002030CD0124A124913484FF48F73B3
:1015E00021F073FE404080F311884FF0030002DFCA
:1015F00001220221104615F055FF11B0BDE8F08F11
:101600008D49FD1A0700000040420F00FF59620299
:1016100059BC01002DBC010091BC01008D49FD1A8F
:1016200049F2020022F10200E697020000CA9A3B4A
:101630002DE9F8438846D0E90B91456B164F4C19BC
:101640003034A145164612A3D3E9002315D8A1FBD7
:101650000701FEF795FD20F07F40C8F80000A4EBDD
:1016600009000BA3D3E90023A0FB0701FEF788FDC7
:1016700020F07F403060BDE8F883A9FB0701FEF74A
:101680007FFD20F07F40C8F8000005F13000E8E75A
:101690008D49FD1A0700000000CA9A3B00000000B7
:1016A0002DE9F84F044626F0B8FD257B064615B116
:1016B00025F0C0FE05460FF26809D9E90089DFF878
:1016C00068B04FF0000A60681DF0B6FFA3689B1B6E
:1016D000A360636833446360237B0AF1010A4BB95A
:1016E000A368002BEFD1A068003818BF012040424A
:1016F000BDE8F88F25F09EFE294625F09DFEB0FB43
:10170000FAF70744606942464B46A0FB0B01FEF71F
:1017100037FD20F07F408742E2D9E4E7AFF3008055
:101720008D49FD1A0700000000CA9A3B0000000026
:101730002DE9F04F8FB0D0F80490DFF8E0B00DF154
:10174000370106460DF1360025F0F4FE9DF83730DE
:101750009DF836A00A9325F06DFED9F81040A4FB41
:101760000B4529A3D3E900230027804629462046BC
:10177000FEF706FDCDE90777254B059306960B90FE
:10178000D9F8140020A3D3E90023A0FB0B01FEF736
:10179000F7FC0B9B23F07F491E4B20F07F40A9FBF9
:1017A00003BC072303FB09CCCDE90370B4EB0B00AA
:1017B00065EB0C014FF47A720023FEF7E1FC43461F
:1017C000CDE901900A9A00970321504616F02CFCAF
:1017D00030F0020313D1104845F6B31120F0A0F900
:1017E00058B19DF837209DF8360003211DF094F97B
:1017F0006FF03B000FB0BDE8F08FB068FAE76FF014
:101800004700F7E7AFF300808D49FD1A070000009D
:1018100061EB01008D49FD1A201A002000CA9A3B95
:101820002DE9F047057B044615B125F003FE05467A
:101830000FF28009D9E90089DFF880A00126A368AA
:10184000032B07D81A4AD2F80034DB07FBD5002057
:10185000BDE8F0872368606819681DF023FF63689E
:1018600004336360236804332360A368043BA360EC
:10187000237B0136002BE2D025F0DCFD294625F044
:10188000DBFDB0FBF6F70744606942464B46A0FB20
:101890000A01FEF775FC20F07F408742CFD9044A49
:1018A000D2F80034D907FBD54FF0FF30D0E700BFA6
:1018B00000E001408D49FD1A0700000000CA9A3B74
:1018C00008B50549054821F000FD054B0548198874
:1018D000BDE8084021F0F9BC6C970200A895020011
:1018E0007C690020B095020008B52049024620B16D
:1018F0001F48BDE8084021F0E8BC1E4821F0E5FC87
:101900001D491E4824F060FD024610B117491C48CD
:10191000EFE722F0FEF81B4B1B4A03F12001116098
:101920009A6A1A4B03201A6014F004F8453018D153
:10193000174821F0CAFC174B1748198821F0C5FC3D
:101940000A49164821F0C1FC154821F0BEFC154893
:1019500006F0A4F9014640B1BDE80840124821F064
:10196000B4BC124821F0B1FCEAE708BD7A97020046
:10197000C4950200EC950200F88A0200208B020058
:101980000A960200C4690020DC010020E00100206A
:10199000359602007C690020B09502006B9602002B
:1019A0008596020094960200999602004D960200D8
:1019B00008B5104626F06AFA094B18701B783BB13F
:1019C000084821F082FC0848BDE808401FF01EBA14
:1019D000064821F07AFC0448BDE808401FF014BB1B
:1019E000741D0020B596020048010020CD9602002B
:1019F00080B5234E234D3378002B3DD0012440F693
:101A0000C41020F007F82C60642020F003F8D5F80B
:101A100008756C601C4C2368002F186948F201217E
:101A2000B8BF033724F0C9FF2368BF101869F9B2A3
:101A300026F068FA23681221186926F06AFA2368EA
:101A40005421186926F065FA104B18680EF008F852
:101A5000024620B10E490F4821F037FCCBE70E4873
:101A600021F033FC0D485423122279B221F02DFCD1
:101A70000B4821F02AFCBEE70A481FF0C5FABAE776
:101A8000741D002000C00040E0010020DC010020A7
:101A90005C970200E496020039970200109702005A
:101AA000389702004801002008B509481FF0ACFA39
:101AB000084806F07BF8014620B1BDE8084006481A
:101AC00021F003BCBDE80840044821F0FEBB00BF84
:101AD00048010020E9180000CC950200F3950200AF
:101AE00030B50A4C0A44914200D130BD11F8013B97
:101AF00058400309E35C83EA0013DDB2C3F3031328
:101B0000E05C80EA0510C0B2EDE700BF93970200E9
:101B10002DE9F04F85B0837A9B00073303F4FF6310
:101B200000AFADEB030DE9464368C9F800308846C5
:101B30001546064649460122904520D2347C14F0D1
:101B4000010402D021F090FA0446B8F1000F1EDA29
:101B5000504A51495148BC2321F0B7FB504821F06D
:101B6000B4FB4C48BC2121F0F3FB4FF0FF34307C38
:101B7000214621F082FA1437BD46BDE8F08F0B688C
:101B80009B0823F0030341F8043F0132D4E759F8DE
:101B900028307B6003FB05FB33683B6003EB0B0ADB
:101BA0002A4607F10C034146304621F045FAFB680E
:101BB0001B68C340DB070DD4364A3A493748A22395
:101BC00021F083FB3848514621F07FFB3148A221A8
:101BD00021F0BEFB07F10C032A464146304621F0B6
:101BE0002BFAFA683968012303FA00F0136823EA34
:101BF00000031360F2680C2303FB08231A1D41F84D
:101C00000B209A68CAF804209A68C2F800A0C3F8AA
:101C100008A02146307C21F030FA347C14F0010415
:101C200002D021F021FA0446B8F1000F9FD007F14D
:101C30000C032A464146304621F0FEF9FB68002895
:101C40001B68B8BF033020F0030023FA00F010F047
:101C50000F038CD125F0030B9C4679680BEB030234
:101C60004A433168881851F802E0D0F804A00133E3
:101C7000042BCAF800E0CEF804A041F802C0C0F876
:101C800004C0EAD1002DB8BF033508F1FF38AD100C
:101C90005BE700BFA3970200C6D20200E6970200EE
:101CA00028980200C7970200039802000B680133CE
:101CB0000B60014B1B681847046A00202DE9F04FA8
:101CC00085B09B460E9CDFF89090012CB8BF012494
:101CD000012B0CBF30232023154606468A4602936B
:101CE00001274FF00A080022B5FBF9F301930AB966
:101CF000A9451FD8019B514603F13000B047013779
:101D00000122019B08F1FF38B8F1010F09FB1355BF
:101D10004FF00A03B9FBF3F9E6D1514605F1300063
:101D2000B047BBF1030F02D1E41B002C0EDC05B061
:101D3000BDE8F08F4445E4DBBBF1020FE1D8029827
:101D400003925146B0470137039ADAE75146202003
:101D5000B047013CE9E700BF00CA9A3B014B18605D
:101D6000704700BF046A00202DE9F04F8DB01C467B
:101D70000027531E05468B4603934FF0FF39B846A4
:101D8000002605E06EB9252800F071815946A84764
:101D9000039B13F8010F03930028F3D10DB0BDE8A6
:101DA000F08F7A280AD8622810D8302854D045D825
:101DB000252800F05A812D2800F05F815946252002
:101DC000A847039B18785946A847D9E7A0F16303B1
:101DD000172BF3D801A252F823F000BF63200000B4
:101DE000A71E0000BD1D0000BD1D0000BD1D0000A0
:101DF000891E0000A71E0000BD1D0000BD1D0000C3
:101E0000891E0000BD1D0000BD1D0000BD1D00009D
:101E1000491F0000BD1D0000BD1D00003320000053
:101E2000BD1D0000171F0000BD1D0000BD1D0000EE
:101E3000451E0000BD1D0000891E000039281AD96A
:101E40005828BBD1039B1B78702B40F0888054F836
:101E5000043B0693002290E0B9F1000F0EDAB8F1CE
:101E6000000F00F00D81A0F13009B8F1000F08BF9C
:101E70004FF002088CE7B9F1000FF4DB0A2303FBF3
:101E80000909A9F13009F0E7682803D1682F06D1C4
:101E900048277DE76C2802D16C2F00F0F480002FDA
:101EA0008CD1074674E77A2F02D154F8046B21E0F5
:101EB0006C2FFAD04C2FF8D1073424F00704F4E843
:101EC0000223CDE90423049B13F10041059B0891F3
:101ED00043F100010991DDE9082300214FF0FF30B3
:101EE000994208BF904204D25946284621F0CCF9C5
:101EF00046E7049E002E05DA59462D20A847764273
:101F000009F1FF39CDF8009043463246594628463C
:101F1000FFF7D4FE34E77A2F02D154F8042B0FE0F8
:101F20006C2FFAD04C2FF8D1073424F00704F4E8D2
:101F3000022300214FF0FF30994208BF9042D3D3D3
:101F4000CDF800904346E1E759463020A84759466E
:101F50007820A8474FF008094FF0010872E76C2F6E
:101F60003FF475AF4C2F7FF472AFE31D23F00703EE
:101F70001C4654F8082B06925A680021102304913D
:101F800007914FF0400AAAF1040A0699CAF1200EFF
:101F9000AAF1200C21FA0AF002FA0EFE40EA0E0025
:101FA00022FA0CFC40EA0C0010F00F0007D1079950
:101FB00011B9BAF1000F25D14FF0300C05E0092816
:101FC0008CBF4FF0570C4FF0300C6044594640B274
:101FD0000A920793A847049B0A9A01330493079B2C
:101FE000BAF1000F23D1B8F1030F7FF4C9AE049BFF
:101FF000C3EB4906002E7FF7C3AE59462020A84701
:10200000013EF7E7591E99450A9107DBB8F1010F28
:1020100006D10B9259463020A8470B9A0A9BB2E78B
:10202000B8F1020FFAD10B9259462020F4E7079637
:10203000A9E754F8046BB24653461AF8010B68B985
:10204000B8F1030F21D19E1BA9EB0606002E7FF7E6
:1020500097AE59462020A847013EF7E75946A847C2
:10206000EAE754F8040B5946AEE65946ACE6374663
:10207000B0464FF0FF3901268AE64FF0030887E6A5
:102080004FF0010884E64C2782E6064680E600BF52
:1020900007B50B46002102460191034801A9FFF74D
:1020A00063FE03B05DF804FBAD1C000030B585B0E5
:1020B000CDE90101044600250548039501A9FFF774
:1020C00053FEDDE902309842B8BF255405B030BD5B
:1020D000A532020030B50E490E4887B0002226F026
:1020E00008FA0D4D0D4900240E23CDE90243CDE938
:1020F0000444CDE900440A4B4FF4407228461FF0D7
:10210000E5FD084928461FF0A7FD204607B030BD71
:1021100029210000F801002040020020602B00204F
:10212000FD2500003898020001481FF0B5BC00BF33
:102130009C7400202029F8B505460C4609D914499D
:102140001448154A5B2321F0C0F813485B2121F0A5
:10215000FFF8002003460246012715F8011B09B1CC
:10216000A34200D3F8BD252902D182F00102F4E791
:10217000002AF2D041F02006613E192EEDD87329D5
:1021800004BF07FA03F2104301330022E5E700BF62
:102190006D980200E69702004098020008B500F032
:1021A000A9FA094821F0DCF8042328220749084845
:1021B00026F046F8074B084A1A604FF40040BDE885
:1021C000084000F08BBD00BFF001002094530020B8
:1021D00024020020086A0020A5330200F8B5104B45
:1021E000BFF35B8F002553E8007F43E80052002ACD
:1021F000F9D1BFF35B8F0B4C0B4E361B3611B5423A
:1022000000DBF8BD204621F0C1F828B12368DB6867
:1022100013B139462046984701351034EFE700BF27
:10222000E8010020208A0200408A0200064BBFF32A
:102230005B8F53E8002F013243E800210029F8D1D9
:10224000BFF35B8F704700BFE8010020044A054BD5
:102250009B1AB1EBD30F34BF52F831000020704706
:1022600068880200208A020070B5104C041B2411FB
:10227000013405460E46E4B248B90D490D480E4AF0
:10228000C02321F022F80C48C02121F061F86B68CE
:102290001C710A4C1E6001225A71227812B908483A
:1022A0001FF0FAFB0123237070BD00BF208A0200DB
:1022B000B2980200E697020085980200751D002082
:1022C0009C74002070B5184B184CE41A902C0BDD50
:1022D00017491848184A4FF4F97320F0F6FF1648CA
:1022E0004FF4F97121F034F8BFF35B8F134B53E8CF
:1022F000005F6A1C43E800210029F8D1BFF35B8F1F
:102300001DB9094E2411A54200DB70BD337B43B1DA
:1023100033685B6903B19847042200213046FFF718
:10232000A3FF01351036EEE7208A0200408A020042
:10233000C9980200E697020040980200EC010020D4
:10234000164B984237B5044602D3154B98421FD31B
:102350001448002201A91DF0D1FB0546D8B901227D
:10236000019BBFF35B8F53E8001F43E80020002868
:10237000F9D1BFF35B8F019821461F22043022F070
:1023800034FE019C7E2384F8233084F824500434E6
:10239000204603B030BD044CFAE700BF0C860200B3
:1023A000C001030024020020EC98020048B1054B54
:1023B000984205D3A03398422CBF002001207047DB
:1023C00000207047945300204E4B1B782DE9F74FA7
:1023D000044603B960B34FF02003EFF3118683F393
:1023E0001188BFF36F8F484820F0CAFF054686F377
:1023F0001188BFF36F8F78B1BFF35B8F434B53E806
:10240000002F013A43E800210029F8D1BFF35B8F88
:1024100094B1284621F0AEF824B93D4B1B680BB1AE
:10242000FFF7DCFE384820F0A9FF041E18BF012486
:10243000204603B0BDE8F08F364B1B78B3B92B7A3A
:10244000DB0713D421F0A9F88146284621F070F863
:1024500001464846FFF76EFE2F4A304BDFF8E0A0FA
:1024600001929B1A07464FEAD30B37B92C4E2D4FDA
:10247000BF1B3F114FF0000841E0B7FA87F8C8F1E1
:102480001F084146284621F056F8274B984202463D
:1024900002D3264B984220D31046FFF787FF06460B
:1024A000D8B9234B9A4218D06B8922492248BBEBFA
:1024B000931F4FEA931284BF019B53F83260AD2300
:1024C000524620F002FF1D4841464B46324620F05E
:1024D000FCFEAD21504620F03BFF012303FA08F833
:1024E00027EA0807C1E7304620F050FF20B13368E3
:1024F00029461B683046984708F101081036B84550
:10250000F1DB86E7751D0020F0010020E4010020CA
:10251000E8010020761D002068880200208A020061
:10252000208A0200408A02000C860200C0010300DB
:10253000EC980200C6D20200E6970200069902005B
:1025400040980200264B70B51B68418104469847AD
:10255000244DE060BFF35B8F55E8003F013345E851
:102560000032002AF8D1BFF35B8F4FF02003EFF366
:10257000118683F31188BFF36F8F1B48214620F02B
:10258000F3FE86F31188BFF36F8F184B1A787AB178
:102590004FF02003EFF3118483F31188BFF36F8FA3
:1025A0000020FFF711FF84F31188BFF36F8F70BD18
:1025B0000F492B6809680029F9D0012B06D10D4875
:1025C000BDE870404FF47A7120F0EEB80A2BEED1DE
:1025D000084825F09AFF0848BDE870401FF05CBA33
:1025E000086A0020E4010020F0010020761D002090
:1025F000D4020020F80100209C74002008B5154A80
:10260000154B9B1A002B0BDC14491548154A40F258
:102610007F4320F05AFE134840F27F4120F098FE9D
:10262000FFF750FE1FF032FA0F4B186030B10F4B1E
:102630001B68092B02DD0E481FF02EFA0C4C0020FF
:10264000FFF7C2FE0028FAD14FF0FF3120461FF0FD
:1026500067FAF4E7208A0200408A020047990200E4
:10266000E697020040980200D4020020E401002016
:102670009C740020F8B50F4F3D7875B90E4C0F4E85
:10268000FFF720FE361B3611B54207DB0020FFF7AF
:102690009BFE0028FAD101233B70F8BD204620F0B4
:1026A00075FE18B1236820461B6998470135103420
:1026B000EAE700BF761D0020208A0200408A02005F
:1026C00007B504380190BFF35B8F50E8003F5A1EF6
:1026D00040E800210029F8D1BFF35B8F012B03D123
:1026E000034801A91DF06EFA03B05DF804FB00BFBA
:1026F000240200202023024902481A4625F0A0BDEA
:1027000034540020D802002037B50023094D01932E
:102710000120FFF759FE0446FFF788FD002201A9BA
:1027200028461DF0EBF908B1002CF1D1019803B057
:1027300030BD00BFD802002007B500220648019234
:1027400001A91DF0DBF910B1FFF7DEFF0190019840
:1027500003B05DF804FB00BFD8020020F0B5037A97
:10276000467A85B0D90701904FEA16160ED5019B1F
:102770001A7A920704D55B69184C0393039B33BB09
:10278000164801A91DF01EFA05B0F0BD002EEED0CE
:102790000024254617E0294620F0CDFE0746FFF726
:1027A00005FE78B13CB9019B31461869FFF7C2FCC0
:1027B00004460028DBD024FA05F3DB0702D53846AF
:1027C000FFF77EFF0135AE420198E4D8CFE71D68E0
:1027D00003A920461DF0F6F90395CFE7D8020020A3
:1027E0000E2A2DE9F84F8146884615460BD92D490A
:1027F0002D482E4A4FF49B7320F067FD2B484FF471
:102800009B7120F0A5FDFFF797FF044630B301232D
:102810000027032D4360078109D902220281A5F117
:10282000020A00F1140B4761BAF1000F0EDC637A63
:10283000C4F8109065F30713032D637218D8AA002B
:10284000414604F1140022F023FC07E0FFF774FF77
:10285000064630B92046FFF781FF34462046BDE8E2
:10286000F88FCBF80000AAF1070A07608346DBE780
:102870004146082204F11800676922F009FC023D74
:1028800008F10808072D2E4628BF07264FEA8609BB
:102890004146381D4A4622F0FBFBAD1B3F68C84449
:1028A000F0D1DBE793990200E697020067990200F6
:1028B0000EB403B503AB014653F8042B044801934F
:1028C000FFF752FA002002B05DF804EB03B0704746
:1028D000092B00002DE9F04F85B011F0020490465D
:1028E0009DF8387006461A4601F0010901F0080506
:1028F00007D011F0440F37D13249FFF7D9FF014615
:102900000C46B9F1000F0AD02F4B304953F827205D
:102910002F4B3046002A08BF1A46FFF7C9FF3DB1CA
:102920002C4B2D4953F827203046FFF7C1FF0546B1
:10293000B8F1000F43D0012303FA07F7274B17F034
:10294000100F274F18BF1F46BDF840109DF83C00E0
:10295000FFF77CFC394602463046FFF7A9FF2844C2
:10296000204405B0BDE8F08F1E4B19680029C7D080
:102970001D4B4FF4616E1B68B2FBF3F34FF47A7C8E
:10298000B3FBF1F4B4FBFEF20EFB124E01FB143468
:102990000CFB04F44FF03C0AB4FBF1FB01FB1B44BD
:1029A0000CFB04F4BEFBFAF3B4FBF1F1CDE901B189
:1029B0000AFB13E100910D49FFF77AFF9FE7084FEB
:1029C000C2E700BFAC990200608B0200D1E30200B5
:1029D0009E990200748B0200D1990200A89902000E
:1029E000A3990200F4020020F8020020B599020029
:1029F00038B50C46E107054603D5084A0849FFF7F4
:102A000057FFE20608D4A30628464CBF05490649ED
:102A1000BDE83840FFF74CBF38BD00BF9E990200AB
:102A2000D1E302006BF70200D79902002DE9F047CD
:102A30001D46089B1746DA0604460E4605D499063D
:102A40004CBF2A492A49FFF733FFDFF8AC904FF01B
:102A50000008A8452ADBDFF8A480DFF8A490DFF89F
:102A600098A00025BD422FD2725D49462046FFF74F
:102A70001FFF0135102D20D11E49DFF87C80DFF8C3
:102A800084902046FFF714FF0025AF4228D9725DDD
:102A9000A2F120035F2B28BF2E2249462046FFF7D4
:102AA00007FF0135102D14D1BDE8F08749462046B7
:102AB000FFF7FEFE08F10108CBE76A07D2D15146C5
:102AC0002046FFF7F5FECDE741462046FFF7F0FE32
:102AD000CFE76B07D9D141462046FFF7E9FED4E79F
:102AE00041462046FFF7E4FEDBE700BF6BF702003C
:102AF000D7990200E4990200E2990200E0990200ED
:102B0000DA990200E699020038B54B681A68CB687A
:102B10009A4205460C4602D1084620F0B1FE636891
:102B2000BFF35B8F53E8002F511C43E800100028CF
:102B3000F8D1BFF35B8FA3689D5463681A68E3689C
:102B40009A4209D905490648064A782320F0BDFB78
:102B50000448782120F0FCFB002038BD189A0200C0
:102B6000E6970200E99902002DE9F0478B7A13F00D
:102B7000070716468AB00A7A04460D461FD04989CF
:102B8000C3F3C2038909D243CDE900730291EB6814
:102B900002F001023146FFF79DFE81462B7ADB43AE
:102BA00013F001080DD02146284620F00CFD002F1F
:102BB0003CD03A4631462046FFF71AFF36E0B94688
:102BC000ECE7002F38D1E3685BB92A492A482B4A41
:102BD00040F2B91320F079FB284840F2B91120F0F7
:102BE000B7FB0026E368069306AA3346A168284689
:102BF00020F0D5FC069A63681A604AB1A3681344B2
:102C000013F8018CA8F10A03D3F1000848EB03087C
:102C1000204620F035FE069B1E44002BE2D1B8F181
:102C2000000F03D016492046FFF742FE204620F051
:102C300027FE0AB0BDE8F087284620F0AEFC114917
:102C400002462046FFF734FE4FF0100A05AA43461D
:102C500006A92846CDF814A020F0A1FC059A002A68
:102C6000A7D04B46009606A92046FFF7DFFE059B3E
:102C70009844EBE7489A0200E6970200E9990200BF
:102C8000599A0200D1E3020073B5D0E900435D68B0
:102C90000F4A42F20F738B4228BF0B46684605214C
:102CA00002F0B4FF2B4606460A4920460B2220F0CC
:102CB0007DFC2B4632466946204620F077FC0649CB
:102CC0002B461B22204620F071FC02B070BD00BFD5
:102CD000B9B90200939A0200779A0200084A10B527
:102CE0000123084C13600021A04204D801B11360F5
:102CF000054B186010BD40085B000121F4E700BFE0
:102D0000F802002040420F00F4020020014820F0A9
:102D1000B7BD00BFA08B02000148FFF7B5BF00BFE1
:102D2000A08B020010B509481CF00CFD044648B900
:102D300007490848084A2D2320F0C7FA06482D21E4
:102D400020F006FB054B5C6010BD00BF9F9A02009F
:102D5000DB9A0200E6970200A69A02000403002014
:102D600010B508460C4620F0D6FB054821460F2238
:102D7000FFF7FAFE2046BDE8104020F0FBBB00BF85
:102D8000A08B0200014B01221A707047881D0020A1
:102D900008B5034820F074FD024B01221A7008BDEB
:102DA000C88B0200891D00200148FFF76DBF00BFDE
:102DB000C88B020010B508460C4620F0ACFB054855
:102DC00021460F22FFF7D0FE2046BDE8104020F03C
:102DD000D1BB00BFC88B0200044B1B781BB141F272
:102DE000883025F0D6BA05201EF014BE891D0020BB
:102DF0002DE9F84FDFF88C90DFF88CB007460E46CF
:102E00000424CA4699F8003023B94FF0FF315846E0
:102E10001DF048F832463946002001F00DFA9AF8C4
:102E20000030804613B958461DF01AF9144DB8F118
:102E3000000F18D001232B709AF8003033B93046B8
:102E4000BDE8F88F5CB92C704FF0FF34002001F022
:102E50003FFA0028F3D02B78002BF3D1EFE7013CA9
:102E6000FFF7BAFFF2E72B7813B1013C04D12C70C5
:102E70002B78002BC6D1E2E7FFF7AEFFF8E700BFE3
:102E8000881D0020891D00200C7500202DE9F043CD
:102E9000082385B00D460968047C074620F010FD24
:102EA00068B90821204620F057FD2968BB890144F4
:102EB0008AB21B1A9A420646296003D0002005B048
:102EC000BDE8F0830B0C03BFFB8903F1FF3301EB7B
:102ED0000341A1F58031296008236A46384620F075
:102EE000EFFC0028EBD16A46034612F8011BFF29CC
:102EF00015D10133082BF8D17B682B60DFE7BB8944
:102F0000BDF802109B1B99420FD2B1FBF6F306FBF2
:102F1000131353B9240C24040C442C60CFE76846E7
:102F200020F005FD2C680028E9D0104BA41B2C6074
:102F300004EA03089946A045C0D208230DEB03021A
:102F40002146384620F0BCFC0028B8D102A820F069
:102F5000EEFC40B9BDF80A30BDF80C202C6008EA40
:102F6000090813449844A41BE5E700BF0000FFFFD5
:102F70002DE9F04F054695B0007C082120F0ECFCCF
:102F80006B681B0C1B04064603A9E889039320F019
:102F9000EDFC039BA98906AF1944891B08233A4617
:102FA0002846049120F08CFC041E71DB0023FA5C9F
:102FB000FF2A71D10133082BF9D10399284620F05B
:102FC00004FD044664E057453E4628BF5646334656
:102FD0000CAA4146284620F073FC0446002857D12D
:102FE00036B1A96833460CAA284620F014FD0446E1
:102FF000287C314620F0B0FCAA680244AA60002C6C
:1030000046D1AAEB060AB04438E0019B5B45D4D018
:1030100008AA04A92846DDF810B0FFF737FF0446D8
:10302000002835D16B6805930AAA05A92846059F93
:10303000FFF72CFF044658BBBDF82820BDF8203010
:103040009A42F1D10AA820F072FC0028ECD15F4529
:10305000DBD1BDF82430002BD7D0BDF822300BEAED
:103060000908984408A8AB68ADF8223020F06BFC42
:103070002F7CBDF824A07F4207F02007BAF1000F93
:10308000A1D108A9284620F00AFD04460028BCD09A
:10309000204615B0BDE8F08F049BBDF81A109A1BAE
:1030A0000192034A13400B4404939146B0E700BFDA
:1030B0000000FFFF2DE9F043044687B00D4600F104
:1030C0001406304625F0F0F828461CF03BFBA062C1
:1030D00078B9914B91499248C91AC908890141F0C0
:1030E000010120F063F96FF00505284607B0BDE83F
:1030F000F08343681B7D2374202B0CD98749864BB2
:103100008848C91AC908890141F0010120F04EF927
:103110006FF01505E9E7A06A216803AA25F03BF8DE
:1031200040B17E497C4B8048C91AC908890141F0E9
:103130000101EBE7A3892BB1049AB3FBF2F502FB83
:10314000153545B17549744B7848C91AC9088901C4
:1031500041F00101DAE7E389012B08D86F496E4B92
:103160007348C91AC908890141F00101CEE70095E9
:103170004FF0FF3130461CF095FE207C082120F0F6
:10318000EBFBA9460746E3891FFA85F8434505D8B6
:10319000E3894B451ED16FF02005A6E7A1892B04DA
:1031A000C91B13FA81F108222046009120F0E9FBA7
:1031B00070B1E089694620F0D9FB09F10109009955
:1031C000082220461FFA89F920F0DBFB0028DFD017
:1031D0000135D8E798450AD100990822C91B204635
:1031E00020F0CFFB18B9E089694620F0BFFB009BB7
:1031F000DA1B62604F4A1340A3609046D4E9011382
:1032000099420ED3082301AA204620F059FB054617
:1032100018BB01AB13F8012BFF2A65D10135082D2E
:10322000F8D1D4E901218A4206D9521A204620F069
:10323000A8FB051E11DB3AD16368DFF8F880E0894E
:1032400003EA08036946009320F090FBA2890099E5
:10325000204620F096FB051E2EDA30461CF000FFBB
:10326000002D7FF442AF012363742C4E2A4BA289B8
:10327000E1893148F61AF608B60146F003063346EE
:1032800020F0B5F861682D4833468AB2090C20F069
:10329000AEF8A1682A488AB23346090C20F0A7F894
:1032A00023E7B9F1000F34D06FF01C051DE7A368C8
:1032B000227C1344A360B4E7CFD06168204620F09D
:1032C00084FB05460028C8D16368A08903EA080387
:1032D0000344A3EB4700606000EA0800A0602046BA
:1032E000FFF746FE0546B8E701A820F020FB656819
:1032F00078B90098BDF80620BDF8089000EA0800EB
:1033000002444946207C20F027FB1044A842A060DC
:10331000C7D0ED1B656071E768880200E089020094
:10332000149B0200309B02004D9B0200659B020033
:10333000799B02000000FFFF9C9B0200B39B0200F0
:10334000C59B02002DE9F04F1E46437C89B0044620
:10335000894690467BB9674B67496848C91AC908CE
:10336000890141F0010120F021F86FF00C05284699
:1033700009B0BDE8F08F90F810B00821584620F051
:10338000EBFAA38900EB40029B1AB3428246C0F0DD
:10339000AC801EB1B8F1000F00F0A7806368039302
:1033A00004AA03A92046039FFFF770FD05460028E5
:1033B000DDD1BDF810304B4505D06268039B9A42C1
:1033C000EED1D6B9D3E704A820F0B1FA0028F4D1A1
:1033D000BDF814307EB1B3420FD1BDF81200390CE4
:1033E0000904014433464246204620F077FA00287B
:1033F00003DC0546BBE7002BB9D03146584620F028
:10340000ABFA074600283DD104F1140A4FF0FF3112
:103410005046DFF8ECB01CF045FD0023E2899342F2
:1034200060D0D4E90121781882422ED3FF2306A868
:10343000ADF81890ADF81A10ADF81C608DF81E307C
:1034400020F081FA36B1A16833464246204620F08A
:10345000E2FA0546207C314620F07EFAA368034458
:10346000A360002D44D106A9204620F018FB054694
:1034700000283DD13246019250461CF0F1FD019AE0
:10348000154674E75744BFB2BEE7207C019308217C
:1034900020F062FA4FF6FF71ADF818100021ADF878
:1034A0001C101118ADF81A10A18902EA0B020A4487
:1034B000101A606006A820F046FA06A9204620F0FF
:1034C000EEFAE089211D20F051FA626802EA0B024F
:1034D000A2602046FFF74CFD02460028CBD1019B9D
:1034E00001339BE76FF01B02C5E76FF015053EE760
:1034F0002A46C0E768880200E0890200009B0200BB
:103500000000FFFF2DE9FF471E46437CBDF83090C9
:1035100004460F46904673B92B4B2C492C48C91AC8
:10352000C908890141F001011FF040FF6FF00C0054
:1035300004B0BDE8F087007C082120F00DFAA389D3
:10354000A3EB4003B3423BD3636801934FF0000AFF
:1035500002AA01A92046019DFFF798FC0028E7D1A7
:10356000BDF80830BB4207D102A820F0E0F918B935
:103570000AF1010A1FFA8AFA6268019B9A4218D07E
:10358000CA45E5D9BDF80C30BBB1CA4515D3BDF865
:103590000A102D0CB3424FEA054528BF3346424678
:1035A0002944204620F08CF90028C1D1BDF80C0038
:1035B000BEE7BDF80830BB42E4D06FF00100B7E7CA
:1035C0006FF01500B4E700BF68880200E0890200D0
:1035D000009B0200094B30B51D68094B02461C6870
:1035E00000239D4201DC002030BD190104EB0310D3
:1035F000615C9142F8D00133F3E700BF288C0200F0
:103600000C6A0020084B1B6810B50C462BB1FFF765
:10361000E1FF28B12060002010BD6FF00C00FBE737
:103620006FF00100F8E700BF0C6A002030B589B0E8
:103630000C4615460190FFF7CDFFB8B143680293E1
:1036400083682268C068CDE903350023CDE90623ED
:1036500005931CF077F860B1074901AA24F09FFD9B
:10366000079808B9059B236009B030BD6FF01500BD
:10367000FAE76FF01200F7E7D73A02000F4B2DE997
:10368000F0411C6805460E4617469CB14FF0FF31CD
:103690000B481CF007FC63683246D3F808802946C3
:1036A0003B462046C047044605481CF0D9FC20464E
:1036B000BDE8F0816FF00104F9E700BF2C030020A2
:1036C000F874002000230360044B5A6812B9C3E960
:1036D0000000704710605860704700BF240300204E
:1036E000014B1860704700BF2C03002030B585B037
:1036F00000230546CDE9023301900E484FF0FF311B
:103700001CF0D0FB0C4B1C68002C38BF00243CB1D3
:10371000636820461B6801A998472468002CF6D1ED
:10372000284600F0EFF8044602481CF099FC2046B9
:1037300005B030BDF8740020240300201FB5CDE98A
:10374000010103920C484FF0FF311CF0ABFB0B4B17
:103750001C68002C38BF00243CB1636820461B68FD
:1037600001A998472468002CF6D103481CF078FC86
:10377000002004B010BD00BFF87400202403002016
:10378000024B0022C3E90022704700BF240300203F
:10379000024B0022C3E90022FFF7F2BF30030020F2
:1037A0002DE9F34707460E4609B100230B60DFF809
:1037B000B080264CDFF8AC900025C24644450CD9B9
:1037C0002349244894234A461FF07FFD22481FF0D6
:1037D0007CFD942148461FF0BBFD544508D31F4B88
:1037E0001C680CB1143CC4B9284602B0BDE8F0878F
:1037F000216801AA384620F093F960B125B90EB1CD
:10380000019B3360254606E029682068002220F0ED
:1038100087F90028F3D11434D0E7216801AA38468B
:1038200020F07EF960B125B90EB1019B33602546C9
:1038300006E029682068002220F072F90028F3D100
:1038400014F1140FD0D06469CBE700BF2C880200BC
:10385000229C0200E69702004A9C020030030020EE
:1038600068880200F09B02002DE9F04385B0054610
:10387000DDF8308003900C4616461F46B8F1000F65
:1038800018D0D8F8001081B103AA20F049F960B926
:10389000002007E0D8F80830009303983B463246F2
:1038A0002146C84705B0BDE8F083D8F80490B9F1C7
:1038B000000FEFD103A92846FFF772FF0028E7D0D9
:1038C000D0F80880039832463B462146C04706465A
:1038D0000028DDD0084B094C2846E41AE408FEF71E
:1038E0002FFDA40144F0010401462346044832465A
:1038F0001FF07DFDCCE700BF68880200108A02003F
:10390000699C02002DE9F843234F244CDFF8A08086
:1039100006460025B946BC420CD921492148F4236A
:1039200042461FF0D2FC20481FF0CFFCF421404655
:103930001FF00EFD4C4507D31C4B1C680CB1143C0A
:10394000A4B92846BDE8F8831EB9E3684BB914341E
:10395000E1E720680022314620F0E2F80028F4D1A7
:10396000F5E79847002D08BF0546F0E736B9E3684C
:1039700063B914F1140FE4D06469DFE72068002212
:10398000314620F0CDF80028F1D1F2E79847002D1C
:1039900008BF0546EDE700BF688802002C880200DA
:1039A000229C0200E69702004A9C0200300300209D
:1039B000F09B020010B5064C23783BB9FFF7E8FEF8
:1039C00000F064F808B90123237010BD0020FCE763
:1039D0008A1D00202DE9F047848EDFF8ACA0013469
:1039E00098B080468946A4B200F10806651EADB2C3
:1039F000B5F5004F45D04A2305AA2946304620F0A8
:103A000063F804F57F543F34A4B2074621460123EE
:103A10000DF10B02304620F057F8002F014603DC71
:103A2000002803DC2C46E1E7002816DCB8F8343027
:103A3000AB4209D142466B1E22F8343F4FF400419D
:103A400002233046FFF77EFC2946304620F038F846
:103A50002146304620F034F8E4E718AB1F44002339
:103A600007F84C3C5246CDF8009003AB05A80396EE
:103A7000ADF81040FFF7F8FE0028D3D018B0BDE82D
:103A8000F0870020FAE700BF933B02007FB50123D7
:103A9000694604200193FFF7B5FD0446002836D19E
:103AA00002AA01A90420FFF7C1FD10F1130F04467B
:103AB0002DD038B10C3405D0404080F311884FF040
:103AC000040002DF0399B1F5803F23D2009A00235E
:103AD00095681846084485429CB203D30133082BED
:103AE000F8D11C460D4D5368AB602846D368EC8274
:103AF000A982AB6320F0E2F8044640B9084E6E603C
:103B00002846FFF7DFFD28466E60FFF7E9FD2046F7
:103B100004B070BD6FF02404F9E700BF3803002043
:103B2000106A002010B50748074C1BF00BFE074B2E
:103B30001860204602F064F82046FEF70FF90020D6
:103B400010BD00BF9F9A0200513B0000740300208B
:103B50000A2838B5074D044604D1286843680D216A
:103B60005B68984728684368E1B25B6898472046DD
:103B700038BD00BF7403002038B5CCB2012C054617
:103B800009D90B490B480C4A7D231FF09EFB0A48BC
:103B90007D211FF0DDFBAB680C2104FB01314B7A6A
:103BA00023B9087AB0FA80F0400938BD0220FCE75A
:103BB000CF9C0200E6970200949C020070B5CCB244
:103BC000012C054609D9194919481A4A92231FF0B0
:103BD0007CFB184892211FF0BBFB2B68AD689968ED
:103BE0004FF02003EFF3118683F31188BFF36F8F3B
:103BF0000C226243AB18187A90B10138C0B2187227
:103C000088B901EBC404A850E278586002F1804200
:103C100001211160587286F31188BFF36F8F70BD58
:103C20006FF04400F7E70020F5E700BFCF9C0200EB
:103C3000E6970200949C0200F8B5124EB3680C247B
:103C400004FB00340123054663724FF02003EFF3B9
:103C5000118183F31188BFF36F8F23682BB16068E4
:103C60001A682260834208BF626081F31188BFF343
:103C70006F8F03B9F8BDD3E9017229463046B847C2
:103C8000E3E700BFA07300202DE9F84FCFB2012F6A
:103C900080460E46144609D946494748474AED230F
:103CA0001FF013FB4548ED211FF052FBD8F8003000
:103CB000D8F80890D3F808A0002C5CD14FF020036E
:103CC000EFF3118B83F31188BFF36F8F0C2307FB86
:103CD00003931D7A0135EDB21D724DB9384936484E
:103CE000364AFE231FF0F1FA3448FE211FF030FB64
:103CF0008BF31188BFF36F8F44B34FF080430322DF
:103D0000C3F808230C227A4309EB0203597A91B9CC
:103D10004FF02000EFF3118C80F31188BFF36F8F09
:103D20002160586800283ED15C6049F802408CF35D
:103D30001188BFF36F8F4FF080430322C3F8042331
:103D400021B1D4E90132314640469847012D10D1C6
:103D5000012E07D11B4C237823B94FF4A57024F012
:103D600018FB26700AEBC7070122BB7803F18043DA
:103D70001A6000201CE063684BB913490E480F4AD3
:103D8000F1231FF0A2FA0D48F1211FF0E1FA0C23F4
:103D90007B4359F803309C4208D0002B8ED01B681F
:103DA000002BF8D18AE704605C60C0E76FF00F0079
:103DB000BDE8F88FCF9C0200E6970200949C0200B9
:103DC000419D02008B1D0020F39C0200154B07B59E
:103DD0001A6882B14FF08042D2F80423D1070AD585
:103DE00000221A601B680093009B0F4B9B68587A57
:103DF00008B9FFF721FF0D4B1A6882B14FF08042DE
:103E0000D2F8042392070AD500221A601B68019396
:103E1000019B012003B05DF804EBFFF70DBF03B079
:103E20005DF804FB00010040A07300200401004085
:103E300010B5064C06490748224617231FF045FADD
:103E400020461721BDE810401FF082BA739D020082
:103E5000C6D20200E697020038B5224C0023C4F80F
:103E600040314FF02003EFF3118583F31188BFF346
:103E70006F8F1D481EF01EF868B91C4A1C491D486A
:103E80004A231FF022FA18491B481FF01EFA174850
:103E90004A211FF05DFA14481EF02AF8174AD4F898
:103EA000044513681048E41A24F07F442344136047
:103EB0001EF00EF868B90D4A11490E485D231FF037
:103EC00004FA09490F481FF000FA08485D211FF065
:103ED0003FFA85F31188BFF36F8F2046BDE8384065
:103EE0001EF040BB0010014094030020AF9D020073
:103EF000D19D0200E6970200E69D0200900300209B
:103F0000FE9D0200159E020073B518481BF01AFCB6
:103F100048B34368164D1B680121984700240126C9
:103F20004FF48033C5F80845C5F84065C5F804333B
:103F300003F1804303F58A534FF400321C601B6881
:103F40000193019B0B4B3146C3F88021112022467F
:103F500000F0F2FB112000F0BDFB074B20461E6075
:103F60002E6002B070BD4FF0FF30FAE7539D0200A3
:103F70000010014000E100E008100140F8B5394CA4
:103F8000B0F1FF3F18BF04464FF02003EFF3118557
:103F900083F31188BFF36F8F33481DF08BFF68B92F
:103FA000324A334933484A231FF08FF92E493248A9
:103FB0001FF08BF92D484A211FF0CAF92A48294FD2
:103FC0001DF096FF2D4A2E4BD2F804151B68C81A17
:103FD00010F4000F20F07F462BD1601E20EAE07025
:103FE000B842A8BF3846741C2044B84294BF1B187E
:103FF000DB19591A21F07F4123F07F400229C2F8D2
:10400000400518D918481DF063FF68B9174A1D49C3
:1040100018485D231FF059F913491B481FF055F943
:1040200012485D211FF094F985F31188BFF36F8F5B
:10403000F8BD0020D7E7D2F804151448591A21F02A
:104040007F414C1E844205D9114B4FF40032C3F816
:104050000021D7E7012902BF023323F07F43C2F8D2
:104060004035CFE7FEFFFF0094030020AF9D020024
:10407000D19D0200E6970200E69D0200001001407B
:1040800090030020FE9D0200159E0200FEFF7F00AF
:1040900000E100E038B54FF02003EFF3118583F322
:1040A0001188BFF36F8F1A481DF004FF68B9194AD1
:1040B00019491A484A231FF008F9154918481FF0F2
:1040C00004F914484A211FF043F911481DF010FF6C
:1040D000144B0F48D3F80445134B1B68E41A24F023
:1040E0007F441DF0F5FE68B90A4A10490B485D236C
:1040F0001FF0EBF806490E481FF0E7F805485D2170
:104100001FF026F985F31188BFF36F8F204638BD65
:1041100094030020AF9D0200D19D0200E6970200AB
:10412000E69D02000010014090030020FE9D020069
:10413000159E020038B54FF02003EFF3118583F38D
:104140001188BFF36F8F1B481DF0B4FE68B91A4A7F
:104150001A491B484A231FF0B8F8164919481FF09E
:10416000B4F815484A211FF0F3F812481DF0C0FEBC
:10417000154B1048D3F80445144B1B68E41A24F07F
:104180007F441C441DF0A4FE68B90B4A10490C483A
:104190005D231FF09AF807490E481FF096F806486D
:1041A0005D211FF0D5F885F31188BFF36F8F20468E
:1041B00038BD00BF94030020AF9D0200D19D0200D6
:1041C000E6970200E69D02000010014090030020E7
:1041D000FE9D0200159E020010B5114C114AA2610D
:1041E0000323C4E90433104BE36122664FF4806378
:1041F0000E4A0F492362626600231022E01DA3626B
:104200006362E3622367E3666367A26620F0E3FE0E
:104210000849204620F0DFFE2023A37110BD00BF17
:10422000980300202A9E02009C1D00208C1D002067
:10423000339E0200379E02002DE9F84F234F4FF0C6
:10424000180B14460BFB00720646936A556AAB4284
:10425000884634D8D2F820A0AAEB050909F1FF322C
:10426000944211D84FF0180906FB09933B442246AB
:1042700058684146284420F00BFF09FB06762C4481
:1042800074620120BDE8F88F13449C421BD800FBE8
:104290000BBBBB444A46DBF804002C44284420F006
:1042A000F7FEB4EB0A0406D0DBF80400224608EB64
:1042B000090120F0EDFE182000FB0676E0E7013B47
:1042C0005B1BA342CED20020DCE700BF9803002096
:1042D000034B182202FB00339A6A586A801A70470F
:1042E00098030020014B1868704700BF206A002027
:1042F000F0B5082289B00C4606461FF0E2FECB6AF4
:1043000003930B6B04934B6B05938B6B0693CB6BF7
:104310000793002708236A4669466846CDE9017776
:1043200000971FF0D0FD082305466A463146304607
:104330001FF0C9FD236B0393636B0493A36B059379
:10434000E36B0544CDE906376A46082369466846AB
:104350001FF0B9FD3146054408236A4630461FF078
:10436000B2FD236A0093636A0193A36A0293A36B6D
:104370000693E36B0793054408236A463046CDE96C
:10438000047703971FF09FFD636A0093A36AA26BF3
:104390000193E36A02930492636BE26B0393CDE9AA
:1043A0000523236A0793054408236A4630461FF015
:1043B0008AFDE36A0093236B0193636B0293236A84
:1043C0000693A36A0793054408236A463046CDE95D
:1043D000047703971FF0ABFE236B0093636B01938D
:1043E000A36B0293E36B0393636A0693E36A0793F9
:1043F0002D1A08236A463046CDE904771FF097FE50
:10440000636B0093A36B0193E36B0293236A0393A3
:10441000636A0493A36ACDE90537236B07932D1ACA
:1044200008236A4630461FF082FEA36B0093E36BBD
:10443000CDE90137636A0393A36A0493E36ACDE984
:104440000537636B07932D1A08236A4630461FF021
:104450006EFE2D1A10D40D4C35B908223146204677
:104460001FF03BFE01280FD008232246314630467C
:104470001FF05DFE2D1AEFE7044A0823314630464F
:104480001FF021FD2D18F8D409B0F0BD548C0200A6
:10449000F0B5264E07460C460FCE8DB001AD0FC5C8
:1044A0000FCE0FC596E8070085E807003846002FB5
:1044B00038D0002C38D0381F2146024610344B78B3
:1044C0000D781B0443EA0563CD782B438D780431C6
:1044D00043EA05238C4242F8043FF0D1144C0421F6
:1044E0008A07036916D1C3F30742A55C1A0EA25CC2
:1044F00042EA0562C3F30725DBB2655DE35C42EA8D
:10450000054242EA03220CAD21F003032B4453F889
:104510002C3C534050F8042F013153402C290361A7
:10452000DED101200DB0F0BD2046FBE7408A02003D
:104530003E9E02002DE9F043154689B0064600284C
:1045400058D0002959D0002A59D010230A4668466D
:1045500019461FF0F4FB294668462A4C20F0F9FA68
:1045600005F11007A146A035E8466A4610231178E8
:10457000013B615C02F8011BF9D1684620F02EFB7B
:10458000694604A820F063FB01A905A820F05FFBA1
:1045900002A906A820F05BFB03A907A820F057FB9F
:1045A000102319460DEB030268461FF0C8FB39467D
:1045B0006846103720F0CDFAAF42D5D1102498F8D4
:1045C0000030013C19F8033008F8013BF7D1684688
:1045D00020F004FB2946684620F0BBFA1023194658
:1045E0006A4630461FF0ABFB6846102221461FF09A
:1045F000B3FB012009B0BDE8F0830846FAE7104696
:10460000F8E700BF3E9E020004488168406A884285
:1046100003D003494FF080520A607047C41B00204A
:1046200004ED00E00A4A0B4993680968C3F890104A
:104630000949C3F88C004B6843F080534B6000235A
:1046400083F31188BFF36F8F9368D3F8900070479E
:10465000C41B00208095020000ED00E013498A6829
:104660004FF030001044EFF3098C80E8F01F202059
:1046700080F31188BFF36F8F0D4F4FF000664A6AC9
:104680008A603E60D2F88C000023C2F88C3080F340
:10469000118804B5104600F085FCBDE8044002F125
:1046A000300090E8F01F8CF309887047C41B00208D
:1046B00004ED00E01EF0040F0CBFEFF30880EFF3F1
:1046C0000980816911F8021C0229FFD001B520F090
:1046D00001FC01BD43B2002B08DB012200F01F00EA
:1046E00002FA00F05B09024A42F82300704700BF5B
:1046F00000E100E043B2002B0DDB01225B0900F07A
:104700001F0002FA00F02033034A42F82300BFF3EF
:104710004F8FBFF36F8F704700E100E0054B4209F8
:1047200000F01F0053F82220012303FA00F010408C
:10473000704700BF00E100E070B54C1C072C054637
:104740000E460ED9104A114911485B231EF0BDFDDB
:104750001048314607221EF0B8FD0B485B211EF0C1
:10476000F7FD6BB2002BACBF03F160430A4B4FEA7D
:104770004414B8BF05F00F05E4B2AABF03F56143C6
:104780005C5583F8004370BD3E9F0200749F020099
:10479000E69702008F9F020014ED00E008B572B6A4
:1047A000044B186A18B100221A6223F047FD62B662
:1047B00008BD00BFC41B00202DE9F743DDF834908D
:1047C000B9F10F0F054690461E4601F1200725D18D
:1047D0001D4B9E4226D10E9B009342464B4607EB53
:1047E00008043946284623F0D8FDA4F12002174BCF
:1047F00022F0070223F0010393610A9B53600B9B95
:1048000093600C9BD3604FF08073D36100231660DC
:104810002A65C5F88C3003B0BDE8F08309F11003B8
:104820001E2BD8D90A4A0B490B4829231EF04DFDEF
:1048300049460A486FF00F030E221EF046FD044859
:1048400029211EF085FDC6E7ADF80100FF32020008
:10485000C49F0200F69F0200E697020083A00200B8
:104860000A4A0346906878B11633D0F8800002D126
:1048700010F1160F04D981422CBF0021012100E064
:104880000021002908BF0020704700BFC41B002082
:10489000F8B5154606460C461F46203500F066FB67
:1048A0000A4B2C4430469E6024F0070400F07AFB4B
:1048B000384684F30988002163B681F31188BFF379
:1048C0006F8F002200231EF01AFD00BFC41B0020C2
:1048D000014910220A60704710ED00E072B64040B6
:1048E00080F31188BFF36F8FBFF34F8F30BF62B675
:1048F000BFF36F8F704700BFEFF30880EFF30981BC
:10490000724601B500F0FAF901BD00BF73B5064665
:104910000C4601B3134B144D1448ED1AED08AD01CC
:1049200045F00105ADF80050D1E9012309681EF0FA
:1049300077FDADF80050D4E90423E1680C481EF07F
:104940006FFDE1690B482A461EF03DFDA1690A484A
:104950002A461EF038FD2146304602B0BDE87040C0
:104960001AF034BF68880200008A0200B4A0020076
:10497000E3A0020012A1020021A1020030BFFFF754
:10498000FDBF00BF0E4A08B50E4B22F07F029A60B1
:10499000BFF34F8FBFF36F8FD3F8882022F47002DC
:1049A000C3F88820EFF3148323F0040383F31488FF
:1049B0001AF096FF1AF09EFF00F08EFA1AF0D8FF58
:1049C0000000000000ED00E001B572B60B4A106A6D
:1049D00000281EBF0021116223F030FC62B6EFF305
:1049E0000580A0F110004FEAC0000549014409C943
:1049F0009847BDE80140034908470000C41B002058
:104A00000C8602000946000020F016FC202080F3EE
:104A1000118808484FF48061401880F30988EFF34B
:104A200014800221084380F31488BFF36F8FFFF7CF
:104A3000A9FF0000004600202DE9F0473C4B3D4C0B
:104A40003D4DE41AE408A40144F0010907468846F4
:104A50003A48494616461EF0A9FCAA6AD30603D571
:104A6000374849461EF0A2FCAB6A1D0704D53548FD
:104A700044F001011EF09AFC2F4DAB6A980743D514
:104A800044F0010A514630481EF090FCD5F83490AD
:104A9000AB6A19060BD52D48524649461EF093FCC9
:104AA000B8F1000F03D0AB6A23F08003AB62224D54
:104AB000AA6AD20704D5264844F001011EF076FC0C
:104AC000AB6A9B0604D5234844F001011EF06EFC3E
:104AD000194B9C6A14F010040CD05C6814F4006448
:104AE00008D039464846FFF7BBFE044678B180F34C
:104AF00009880224104A936A43F0FF03936200235B
:104B000033702046BDE8F0876FF01509CFE7124AF1
:104B10001249134840F22F131EF0D7FB11481EF024
:104B2000D4FB0D4840F22F111EF012FCE2E700BF4B
:104B300068880200008A020000ED00E04FA1020038
:104B400065A1020098A10200ABA10200C3A102006E
:104B5000D9A10200F8A1020027A20200C6D20200D9
:104B6000E697020061A2020070B5234B234C244D4E
:104B70002448E41AE408A40144F0010631461EF07A
:104B800015FCAA6A930103D51F4831461EF00EFC9E
:104B9000AB6ADD0104D51D4844F001011EF006FC9E
:104BA000174DAA6A100304D5194844F001011EF0FC
:104BB000FDFBAB6A590304D5164844F001011EF011
:104BC000F5FB0F4DAA6A920304D5134844F0010186
:104BD0001EF0ECFBAB6ADB0304D5104844F0010186
:104BE0001EF0E4FB064A936A6FEA03436FEA13433D
:104BF0009362002070BD00BF68880200008A020036
:104C000000ED00E084A202009CA20200AFA202001C
:104C1000C9A20200E7A202000CA3020026A3020020
:104C20002DE9F0412A4B2B4C2B4DE41AE408A4014A
:104C300044F0010807460E46284841461EF0B6FBE0
:104C4000AA6AD10403D5264841461EF0AFFBAB6AE1
:104C50001A0504D5234844F001011EF0A7FB1E4DA0
:104C6000AB6A9B0512D544F001081F4841461EF06F
:104C70009DFBA96BAB6A180408D51C4842461EF080
:104C8000A2FB1FB1AB6A23F40043AB62124DAB6AC7
:104C9000590504D5164844F001011EF087FBAB6AA4
:104CA000DA050DD5134844F001011EF07FFB0A4AD6
:104CB000936A002043F47F4393623070BDE8F08133
:104CC000AB6A9B04F3D50C4844F00101EDE700BF4B
:104CD00068880200008A020000ED00E051A3020093
:104CE00067A3020098A1020078A3020091A302002A
:104CF000A6A30200C1A30200F8A102002DE9F04121
:104D00005F4B5D688AB00E46C5F30804002787F341
:104D10001188BFF36F8F02F07F43B3F17F4F0DD146
:104D200002F00C03082B1AD15649574B5748C91AA1
:104D3000C908890141F001011EF038FB544A554968
:104D400055484FF46C731EF0C0FA54481EF0BDFA7B
:104D50004F484FF46C711EF0FBFA002605E0120775
:104D60005CBF06460127002EE8D000238DF80730EF
:104D7000E31E092B6BD8DFE803F005595D3D6A6A35
:104D80006A6A6A61404B3F4D4548ED1AED08AD0136
:104D900045F0010529461EF009FB394BDC6A4FF04E
:104DA000000814F002048DF8078005D03D4829461C
:104DB0001EF0FCFA002420E0DB6A5B001DD53A48B7
:104DC00029461EF0F3FA394B1B7833B10DF1070277
:104DD00001213046FFF730FE0EE0354B1B782BB13A
:104DE0000DF107010120FFF71BFF05E0314B1B8888
:104DF0009BB213B1FFF7B8FE04469DF8073093B994
:104E00002022314602A820F043F9099B9FB3C3F347
:104E1000080222B96FEA53236FEA4323099302A9D8
:104E20002046FFF773FD0AB0BDE8F0810DF10702DF
:104E30000021CEE70DF107010020D4E71149124B04
:104E40001D48C91AC908890141F00101B0E70E4A9D
:104E50000C4B1A481A499B1ADB0815F4F87F4FEAE5
:104E6000831318BF014643F001031648A4F1100252
:104E70001EF0BDFA9EE723F4FF7323F00103CDE794
:104E800000ED00E0008A020068880200D9A3020059
:104E900027A2020004A40200E697020017A4020061
:104EA00055A402006CA402008DA4020028ED00E0CD
:104EB00029ED00E02AED00E0ACA40200F7A4020016
:104EC000E2A4020010A50200024A536943F0100355
:104ED0005361704700ED00E0044800232021C21810
:104EE0000133272B82F80013F9D1704700E100E06D
:104EF00038B504464FF02003EFF3118583F3118892
:104F0000BFF36F8F037BDB070CD51249124A13489E
:104F100023231EF0DAF912481EF0D7F90E48232198
:104F20001EF016FA20461CF0D9F80E4B9B68A342DF
:104F30000BD10D4B5A68C2F3080212B92846FFF78D
:104F400071FB5A6842F080525A602846BDE83840EA
:104F500023F0D9B964A5020023A50200E697020058
:104F600092A50200C41B002000ED00E01FB5084B15
:104F70000193084B0293084B039301AB0093074A3C
:104F8000074B0121684600F0F3F805B05DF804FB1B
:104F9000000000200000000000000B0600000020C0
:104FA000000001201FB5D0F88030203B0193064B54
:104FB0002022CDE90223012101AB6846009300F0D5
:104FC000FDF805B05DF804FB00000B15DFF8BCC070
:104FD000F8B506460F4610460021B9421BDA56F8CE
:104FE00021E0DEF80440002C46D0ABB1651E2C4217
:104FF00005D11F2C03D9DEF8002015420CD01F4A22
:105000001F4B2048D21AD208920142F001021EF032
:10501000DAF96FF01500F8BD202CC5B2DEF80020DB
:10502000DEF8080016D9B4F1004F15D8013CB4FAE7
:1050300084F4C4F11F046400072D44EA00040DD970
:105040000E4A0F4B1048D21AD208920142F00102C8
:105050002946DCE70824EFE73E24EDE722F01F02B3
:105060002A4342F0100244F00104CCF80850681CB6
:10507000CCF80C20CCF810400131AEE7F0890200EA
:1050800068880200B1A50200D4A5020090ED00E0FE
:10509000034B05225A60BFF34F8FBFF36F8F7047EA
:1050A00090ED00E0BFF35F8F014B00225A60704724
:1050B00090ED00E0254910B50C68082C13D940F29A
:1050C0002913234A234924481EF0FFF823480822C5
:1050D00021461EF0FAF81E4840F229111EF038F958
:1050E0004FF0FF3010BDFFF7DDFF48681C4900227C
:1050F000944200F10C0019D11A4B1C70FFF7C8FF45
:105100000B68C3F30723082B0ED01749104A124827
:1051100040F247131EF0D9F814481EF0D6F80C4898
:1051200040F247111EF014F90020DBE78A6050F8C6
:105130000C3C23F01F03134343F01003CB6050F8E3
:10514000043C43F001030B610132D1E7008D020002
:10515000FAA50200C6D20200E69702003AA60200B3
:1051600090ED00E09C2100206EA60200BEA6020089
:1051700038B50D4D01232A780C46FFF727FF28701C
:1051800016300FD1F223094A09490A481EF09DF84A
:10519000214609481EF099F8BDE838400348F2213D
:1051A0001EF0D6B838BD00BF9C210020FAA5020031
:1051B000C6D20200E6970200DFA6020010B5124A2E
:1051C000002312780C46FFF701FF10F1160F08D0EC
:1051D0000E4B0022072800DD10BD98601A610130D7
:1051E000F8E70B4A0B490C4840F211131EF06DF81A
:1051F00021460A481EF069F8BDE81040044840F214
:1052000011111EF0A5B800BF9C21002090ED00E018
:10521000FAA50200C6D20200E69702000BA7020020
:105220002DE9F04FA1B01E4600230390894602935A
:10523000134613F8010B069358B1252800F081801E
:105240004946039B9847013040F04A844FF0FF33B2
:105250000293029821B0BDE8F08F2B2D65D05CD869
:10526000202D65D0232D66D0002DF2D0CDF81880EA
:10527000DDF81880A44818F8015B29461FF0C8FE25
:105280000028EAD12A2D63D156F8043B0793002B5E
:10529000BFBF5B42079301230D93069B98F8005014
:1052A00003F102082E2D78D198F800302A2B71D105
:1052B00056F8044B08F1010818F8015B9348294699
:1052C0002F461FF0A5FE00286AD04346682F13F82A
:1052D000015B069307D1682D05D108F1020398F808
:1052E000015006934827782D08D8572D5CD8252DD6
:1052F00000F0F28300F2A280002DAAD0039B494661
:10530000252098470130A1D0039B4946284698475D
:1053100001309BD0029B0233E4E32D2D0ED0302DC3
:10532000089B08BF01230893A0E7012309939DE789
:1053300001230C939AE74FF0010A97E701230D939D
:1053400094E7002308930C9309930D939A468FE7F3
:10535000A5F13003092B0790A4D80A22DDF81880A4
:1053600018F8015BA5F13003092B9BD8079B02FBC2
:105370000355A5F13003CDE90683EFE701FB0434C3
:10538000303C9046424612F8013BA3F13000092818
:10539000F4D991E700240A21F4E74FF0FF348DE7B8
:1053A000CDF8188007469EE7A5F15803202BA5D815
:1053B00001A252F823F000BF3D5A0000FD52000048
:1053C000FD520000FD520000FD520000FD520000A1
:1053D000FD520000FD520000FD520000FD52000091
:1053E000FD52000011550000E7550000495400002F
:1053F0004954000049540000FD520000E7550000E8
:10540000FD520000FD520000FD520000FD52000060
:10541000C95900003D5A0000F3590000FD52000038
:10542000FD520000155A0000FD5200003D5A0000D8
:10543000FD520000FD5200003D5A0000A5F1450359
:10544000DBB2022B3FF65AAF073626F007031946A8
:10545000F1E80223D80240EA5250D60220F0004080
:1054600004960590DDE90467002A0191C3F30A510F
:1054700073F10003CDE9146780F2E5802D238DF8E8
:1054800064300DF1650740F2FF73994240F0F680F9
:10549000DDE904120A43A5F1410507F1030340F0D9
:1054A000E280192D00F2D98049223A704E227A709A
:1054B0004622002419AEBA70FC709B1BA246A3467C
:1054C000099A002A40F07D820C9A002A40F07982E5
:1054D0009DF86480A8F12D02D2F1000848EB020883
:1054E0000BEB0A0633441E1920AB434413F81C3C53
:1054F000303B092B00F2FE82089B002B00F0FD825E
:10550000079B19AF9B1B14E038A702003EA70200BF
:1055100032464FF0000852F8043B01928DF8643097
:105520000126444619AF04EB080300249B1BA24646
:10553000A34623EAE3739A190892079A9919551A10
:105540000D9A12B9002D00F3ED8207EB0802BA4262
:1055500040F0EA82013B80F0F582A6EB0806BBF141
:10556000000F10D0387807EB0608A0F13003092BA4
:10557000A8EB070640F2F182D846B8F1010880F0A6
:10558000F582A6EB0B06BAF1000F16D007EB060862
:1055900017F801BB039B49465846984701303FF432
:1055A00055AEBBF12E0FA8EB0706F1D1D046B8F1EE
:1055B000000F00F3E482A6EB0A0694B1387807EBFB
:1055C0000608A0F13003092BA8EB070640F2E2829F
:1055D0002E2800F0DF82A046B8F1000F00F3E3822E
:1055E000361B3E44F2E23568331D002D01931CDA70
:1055F0002D238DF8643069420DF1650630460A228C
:105600001FF094FD099B064419A8361A002B40F0A0
:105610006C820C9B002B40F068824FEAD578002CFE
:1056200080DA0024A246A34666E7099B23B12B2318
:105630008DF864302946DFE70C9B0BB12023F7E798
:10564000294619AEDAE7099B0BB12B2317E70C9B10
:105650000BB1202313E719AF15E769223A706E22C8
:105660007A70662225E7192D99BF4E2241216E22BC
:10567000612194BF3A703A7079701AE7049B0598DB
:105680000B430E93CB1703430F93DDE90E23462DF7
:1056900008BF6625134300F00781002900F09F80B2
:1056A000159B43F00043A1F2FE381593002618F134
:1056B000020FC0F2A880B8F1000F00F3D48014A844
:1056C00008F101081FF056FDB8F1040FF7D1002CC6
:1056D00005F0DF03B8BF0624472B40F0EE80F11C35
:1056E00002DBB44280F2E380023DEDB2002C00F018
:1056F000EA80013CBAF1000F40F0E580002CD4BFF5
:105700004FF000084FF00108662D40F0DE8014EBEA
:10571000060B4FF0660500F1DB80BBF1100FA8BF50
:105720004FF0100B1023139300224FF00063CDE9CC
:105730001623BBF1010B80F0CE80149B169A1799AB
:105740009B18159A41EB0202CDE9143202F0704326
:10575000109300231193DDE91023134306D014A8FE
:105760001FF01AFD14A81FF005FD0136662D40F04C
:10577000CF80002E40F3B680139B002B07DD13A9CA
:1057800014A81FF032FD013E07F8010BF4D1B34617
:105790003B460026BAF1000F01D1002C15DD2E2268
:1057A00003F8012B002E00F0AE80002C40F3AD80FA
:1057B000C6F1000AA245A8BFA246A4EB0A04002C29
:1057C00003DD139A002A00F39480B8F1000F40F033
:1057D000B480002219AE1A709B1B71E60139049B3C
:1057E000DB180493059B5B410593DDE90423002A44
:1057F00073F10003F2DADDE90423CDE914234FE766
:1058000014A81FF0B7FCDDE9142C0023CDF828C044
:105810000B93DDE90A01002908BFB0F1333F08F11D
:105820000108EDD20520A2FB002300FB0C33CDE9DB
:105830001423013E4FF0000E00214FF0000C6FF0DA
:10584000004B8C4508BF9B4506D2BEF1000F3FF4CC
:105850002EAFCDE914232AE792185B4108F1FF38F7
:105860004FF0010EE8E714A81FF096FCDDE91410D4
:1058700008F1FF3801364FF0000E00234FF0000C06
:105880006FF0004B9C4508BF834506D2BEF1000F68
:105890003FF411AFCDE914100DE74918404108F16C
:1058A000FF384FF0010EE8E70026B04607E7A41BDB
:1058B000BAF1000F04D1662520E74FF0000823E776
:1058C0004FF0000823E74FF0000804F1010B24E734
:1058D0004FF0000B26E716A81FF05EFC16A81FF07D
:1058E00049FC26E73B46302203F8012B4FF0000B22
:1058F00050E713A914A80A931FF077FC0A9B013CF8
:1059000003F8010B5BE7B24659E74FF0000A5CE78A
:1059100013A914A81FF069FC3028387018BF06F1CD
:10592000FF36BAF1000F37D1002C35DC7B1CB8F103
:10593000000F43D04FF0000BDA46194613F8012D43
:10594000302AFAD02E2A18BF0B46002405F0DF02B9
:10595000452A7FF43EAF002E1946BABF76422D226B
:105960002B22632E01F8025B5A7008DD642096FB3F
:10597000F0F202F13005D91C9D7000FB12660A207E
:105980000B4696FBF0F200FB126602F13005303652
:1059900003F8025B4E701CE72E22BB1C7A70002CB1
:1059A000C5DD139A002AC2DD13A914A80A931FF0BB
:1059B0001CFC0A9B013C03F8010BF0E7C346C246FE
:1059C000C4E74FF001088BE53246682F52F8043BDC
:1059D000019206D06C2F09D0482F07D1029A1A7075
:1059E00001E0029A1A80019E069A21E4029A1A6046
:1059F000F9E747F63003ADF864303346102253F828
:105A0000041B01930DF166001FF090FB4FF002089C
:105A1000861C04E63346002C53F8047B0193B8BF80
:105A20006FF000440026B44203D126460024A0466D
:105A300079E5BB5D002B5BD00136F4E7331D6F2D9C
:105A40003168019319D1BAF1000F08D030238DF8D5
:105A5000643079B98DF8651088460126DFE519AD07
:105A6000284608221FF062FB19AEAD1B2E184FF01E
:105A70000008D4E50DF16505F2E7752D05D10A2280
:105A800019A81FF053FB0646F1E7BAF1000F11D039
:105A900047F63003ADF864300DF166071022384642
:105AA0001FF044FB582D07D019AEBF1B3E184FEA1C
:105AB0004A08B4E519AFF1E719AA12F8013BA3F1BE
:105AC0006101192903D8203B02F8013CF5E712F8DF
:105AD000013C002BF1D1E7E749462846FFF7B1BB6F
